:4000000000800020110000004D0A00004D0A000010B500F007FE00F039FD0000F8B572B680260024354DF6002C6032002100344801F0F1FB32002100324801F0ECFB324B10
:4000400006211C609923314A1B041360304A02271360304A304E1360304A1360304A13780B43137020222F4B1A60C0222E4B92021A60D8222D4B12011A602D4A2D4B1A60C9
:400080002D4B2E4A1F602E4B1A6012222D4B1A6001F026FA2C4801F0CFFA012001F02CFA302001F045F98023284ADB0533601368FA201F431760264B264AC0001A60082287
:4000C000254B1C602B6893432B6001F0C3F9234801F024F98022224B12061A608022214BD2021A608023DB05336003231E4A13601E4A13601E4B1C60F8BDC0466CF02E40A1
:4001000000300F4000400F400000024000500F4010500F4020500F400C020B4030500F4000700F40000004400800044008010440306C070008020440000304401600180038
:400140000803044030001040001BB70078002E407C002E406A2D000064F02E40DC05000008010B4000010B403000304030003140000E3F4010B5064C2378002B07D1054B61
:40018000002B02D0044800E000BF0123237010BD6001002000000000E4210000084B10B5002B03D00749084800E000BF07480368002B00D110BD064B002BFBD09847F9E76F
:4001C0000000000064010020E4210000D000002000000000F0B5D04BC5B01E6804000092002E00D0DDE001228021CC4D1A6049002A00300000F070FA6B7C2A7C1B02134325
:40020000C74AC84F13806B7B2A7B1B0213433B806B7A2A7A1B021343C348019300F010FC2978C24800F0D2FB3988C14800F0CEFBBB4BC048198800F0C9FB0199BE4800F0D5
:40024000C5FB2979BD4800F0C1FB802180272A79BB4B49001A7030002A0000F03DFA6B7B2A7B1B02134310331B020295AE4D03937F01039B9F4212D0802104AA49003800EF
:4002800000F02AFA80235B00013B9BB204AAD25CB618B6B2002BF7D10137FF37E9E7280000F0CEFBA74800F0CBFB7642A64800F0C7FBB6B2280000F0C3FB3100A34800F038
:4002C00085FB019BB34202D00023029A1370029B1B78562B0FD10026009A1E3B6370313B13809B4B28001E8000F0AAFB994800F0A7FB99483AE000204C2B3AD100F0B0FC70
:40030000002802D100F0DEFC13E03823009A6370313B138000228E4B28001A8000F090FB8E4800F08DFB8E4800F08AFB8A4800F087FB280000F084FB8A4800F081FB8A4882
:4003400000F07EFB280000F07BFB280000F078FB864E300000F074FB854800F071FB300000F06EFB280000F06BFB280000F068FB15E000F075FC002802D100F0A3FC0EE01F
:40038000280000F05DFB7B4800F05AFB7A4800F057FB7A4800F054FB002000F09BFF00256FE00025012E6CD15E4B694E1988328801935D4F914243D3594D714A2B88934244
:4003C00002D970495B189BB239216170298863711B0A8A429241A3718023802130885B01524200022271C018E21D490000F074F9019B32881B88013B934204D10123FF22FF
:4004000023716271A3718523009A5B00138033883800013333802B8801332B8000F010FB594800F00DFB31885848013900F0CEFA298804250139564800F0C8FAFF3520E02E
:400440008021364E49003200280000F045F94C232A00337029002B00202000F033F98022330052002900022000F02CF93B23009A6370343B3800138000F0E2FA454800F0C5
:40048000DFFA01220026ABB222701A0A0433A570E2709BB2E218013A1278013BB6189BB2B6B2002BF6D17642B6B2320A63195A711E711723AF1DE7193B701B4800F0C0FABC
:4004C000204800F0BDFA344800F0BAFA2178334800F07CFA6178324800F078FA2900314800F074FA6378392B0AD121792E4800F06DFAA1796379090219432C4800F066FAFC
:4005000031002B4800F062FA39782A4800F05EFA002045B0F0BDC0467C01002070020020780300207C03002017280000E821000017220000482200007E220000A9220000D9
:4005400080010020D2220000E3220000002300007A0300201F2300004E23000085230000B6230000E4230000012400003824000088240000D82400000A2500002925000040
:40058000FF01000000FEFFFF39250000482500005B25000076250000892500009C250000B1250000C6250000DB250000F2250000072600001C2600000023094A10B51360F5
:4005C000084A136000F07AF8074C200000F038FA064800F035FA200000F032FA10BDC046740300207C010020172800003126000010B5054C200000F023FA044800F020FA60
:40060000200000F01DFA10BD172800004626000010B5064C200000F013FA054800F010FA200000F00DFA002010BDC046172800006F26000070B562B600F090FD164C200086
:4006400000F0FEF9200000F0FBF9144D280000F0F7F9134800F0F4F9124800F0F1F9124A1249134800F0B2F9280000F0E9F9200000F0E6F9200000F0E3F9192000F020FEF1
:400680000C4B010018600C4800F0A0F901F02CFD00F032FDFEE7C046172800003824000084260000D4260000242700002D27000039270000C80000208927000010B500F0DE
:4006C0004FF810BD10B50800190000F097F801235840C0B2404210BD130010B50A00190000F05AF801235840C0B2404210BDF7B5040043180193019BA34215D00825802672
:40070000277830003840431E9841C0B200F048FD012000F051FD013D002000F04DFD7608002DEED10134E6E7F7BDF7B5040043180193019BA34212D007260027012000F013
:400740003BFD00F045FD0500B54000202F4300F033FDFFB2013EF1D227700134E9E7F7BD37B5002401AD0A48019400F069F9280000F098F82B7820001F2B07D1688885382F
:40078000FF3843425841034BC0B218703EBDC0469427000081010020F8B50E0011491300070014001B3102000F4800F00FF90F4B1D78002D06D18A220D4952000D4800F0D2
:4007C00005F90CE022003100380000F089F822000A2C00D90A223100074800F00DF92800F8BDC04694270000E627000081010020F52700000C28000016280000F8B51500A3
:400800000F0022491300060002002531204800F0DDF82A000A2D00D90A2239001D4800F0EBF81D4B94221C78002C28D000F079F800F0B6F8022318400400982200281ED0A3
:4008400030002A00390000F07CF805240126854207D036221148FF32114900F0B7F8002013E0012000F044FD00F09AF8304204D0013C002CF5D1A32201E0012005E0074861
:400880005200074900F0A2F82000F8BD94270000E627000016280000810100200C280000F527000037B56B46DD1C9F23040000202B7000F069FC2800012101ADFFF717FFCF
:4008C00028000321FFF731FF012000F05DFC2B78A01C23706B460222591D00F093FF37BDF0B500BA85B0000A01900D201700002503220E0003AC01A968440395227000F07F
:4009000081FF280000F040FC20000421FFF7EFFE39003000FFF709FF012000F035FC05B0F0BD13B56B46DC1D06230020237000F02BFC01212000FFF7DAFE012000F024FC0A
:4009400013BD7FB500230E00FF21039303AD02332B70431CFF3382188B439A4200D91A00141A00BA000A01900D20032201A9684400F048FF002000F007FC04212800FFF78C
:40098000B6FE80235B009C4200D91C0021003000FFF7ADFE012000F0F7FB200004B070BD13B56B46DC1D05230020237000F0ECFB20000121FFF79BFE01212000FFF7B5FEDC
:4009C000012000F0E1FB207816BD00000FB413B5084C04AB04CBC8212000019301F030F8200000F0BCFB00F0C7FB13BC08BC04B01847C0468201002073B50E001500002851
:400A000001D000F0ACFB2A000B49684600F0CAFF684600F0A4FB3400A31B9D4209DD22780649684600F0BEFF684600F098FB0134F2E700F0A1FB73BD182800001E280000B0
:400A400010B500F08CFB00F097FB10BD10B500F0ADFE03680C2B00D1FEE7FEE7030010B580240849084A0868E400C3189A1AA24201DC0B6005E000F099FE0C230360012011
:400A8000404210BDD400002088030020F8B500250F49104B01394A1C14D000221F685C689E68A018B24203D0B858A0500432F8E70200DE68141AA64201D020C2FAE7103303
:400AC0000139E8E700F078FEFFF7B4FDFEE7C04601000000B428000001210F4A70B5136814008B43136000230C4D0D4E0D489A002900032B00D8B15801338150302BF6D183
:400B0000FFF78CFA084B1A68002A00D11A60012223681343236070BD000010404D0A00000000000000000020C0000020004700234118002A05D0013A881800781B18DBB2BF
:400B4000F7E718007047FF23020070B59A43C0B01300541C6A46FF34D51A1E78EE540133A342FAD1C3B2D45C8C4205D0000AD15480B2110000F034FB40B070BD013810B52D
:400B80000B2830D80902494200F070FD06080A0C0E10141216191B20164B13E0164B16E0164B0AE0164B12E0164B0BE0164B09E0164B02E0164B00E0164BC91814E0164B3B
:400BC00005E0164BC9180878C0B211E0144BC9180A7848788C780002230418430300C8781343000603E000210B7848780002184310BDC046C0FF0300C1FF0300C5FF03007F
:400C0000C9FF0300D0FF0300D1FF0300D6FF0300D2FF0300D4FF0300D8FF0300DCFF0300E0FF03000C4B10B51A68102313400B4A00D113601368802B0DD100240220210000
:400C40001460FFF79BFFA04205D021000220FFF795FFFFF76BFF10BD00030B40C0000020F8B5010006000320FFF788FF040031000420FFF783FF013424022718002431007D
:400C80000320FFF77BFF250001300002B84209D203785A1ED2B2FD2A00D80125E418E4B20130F3E731000120FFF768FF6442E4B20623844203D16A4255416D422B40180019
:400CC000F8BD000070B50400094D02280BD0FFF7C7FF002807D1614261410648C9B2FFF732FF802300E000232B6000F0F5FA70BDC0000020D0FF0300F0B5BE4CA544FFF74D
:400D00005BFC62B6002601969621FF2302AA490008A8FFF75FFA0028F6D102AB1988062977D91A7E0423012A40D102AA558BEA1D8A4270D8962149008A426CD808AA52192F
:400D40009279172A32D1EB189BB2002B08D09EAAA949D21852181278013B801880B2F3E708AB5B195A7940421B79120280B21A43082382421AD150E0019B012B49D19F4B50
:400D80002B40032B45D102AA02AB977F5B7F3F021F43032D06D01F2102ABEA1EC91853A800F030FD0923012C00D88FE0002702A8012143763B0AC376002302AA0232017660
:400DC000391D1780877689B2002909D09EA88A4C40180019007801391B189BB289B2F3E79EA98748C9195B4208189BB2037085481B0A08180370844B0737CB18172108A826
:400E00001970B9B29623FFF703FC7DE7019B012B50D00423CAE70323C8E702AB1C7F5B7E1800313814282ED9784A1768002F26D0019A012A25D105AC02AA1371D5800021B9
:400E400009AD0C222000049500F0E5FCA560210003A8B8472623A788FF339F4202D9A368AB4207D0A268002A01D1002F04D12368DBB29CE70E2399E70E23170097E70523BB
:400E800095E7052392E700F0FBFBC1FF3500CFFF55008A00CFFF9000A4005500C900DC00CFFFCFFFCFFFCFFFCFFFCFFFCFFFCFFFCFFF77FF002DACD12800FFF7D1FE4342C1
:400EC000434102AA1377019F2B0070E76402504BE41924029F4200D9C0E0621C53ABFF321B1B2178185D884200D0B9E001349442F7D16BE0019B012B8BD1012D89D1012C7D
:400F000087D8444B1B681B685A0CD2B2944202D1DB03DB0D03E00023A2425B415B0202AA13771B0A5377FF239377FE3BD377042700233CE7342B0FD1019B012B00D068E716
:400F4000032D00D065E7802280265200002153A800F061FC760006E0019B012B00D058E7022D00D855E71F2153AB981902ABEA1EC91800F047FC0423AD19FF33ADB29D4297
:400F800070D102AB9D7F587F2D02214B05432E009D426DD9FF3BFF3B0193093306E7019B012B00D035E70026AEE6019B012B00D02FE72C33AF19FF339F4200DD2BE753ABA6
:400FC00098192A0009A900F01DFCBEB200231F00EDE6002D00D01CE705AB19000E4A2E0011CA11C109AA03CB03C20123082701932B00DCE684FDFFFFA7FDFFFFFFFEFFFFA4
:40100000ACFDFFFFADFDFFFFAEFDFFFF4C020020FF010000D800002024280000019B012B00D0F6E6032D00D0F3E602AA02AB977F5B7F3F021F432D4B9F4237D9F63BFF3BF9
:40104000B4E60020FFF70CFE002802D18022284B1A60FFF7CDFA00F03FF9DAE60A23A5E60223A3E6012300260193023337009EE6204B1B681A68130AD2B29BB2002A01D0FA
:4010800001339BB26002301880B2984204D20123002601930933E9E753A900F0A1F80028F5D10123060001930300DFE780226102C919090252000020FFF739FD0500012C7D
:4010C0000ED10A4B9F420BD100210520FFF756FD00212D1A0620FFF751FDEDB22D1AEDB202AB6D421D770127002360E6FF010000C0000020D800002070B50020FFF7B0FDD8
:40110000431E98410624134D40422B6804401A68C021C03A0020FFF70AFD6B681B78181AC0B2834203D12B681B68002B02D1002000F0D0F8084B19681A00402901D0002C35
:4011400003D000231360FFF7D7FD80221A6000F0C3F870BDD8000020C0000020704770B5012405000078002805D000F0F9F9285D0134E4B2F7E770BD10B50D2000F0F0F9ED
:401180000A2000F0EDF910BD0223044940000A689A43D2B2034013430B607047000304402023044940010A689A43D2B2034013430B6070470002044008230449C0000A688C
:4011C0009A43D2B2034013430B60704700020440024B18684006C00F7047C046040204400023F0B5C7B0029303932C4B050098424FD800294DD0802206A8520000F002FBE8
:40120000274B9D4201D8274B00E0274BFF220493264C2749274B04AE726026600B60C046236801911B0F0F2B04D021680023090F0A2901D0236813400293029F002F2AD1DE
:4012400000F003FA0397029B002B16D11A4A2D040492049A194915430495019D2660134A2960C0462168090F0F2903D01168090F0A2901D01368DBB20293039B002B05D18F
:401280000393039B002B01D0039B029300F0E1F901E004230293029847B0F0BDFF030000FF010000B6D70000B6D70001080010400400104004000080B6D8000005000080C6
:4012C0001923020002491A40086818400A60704700030B4001BE7047034A044913689BB20B4313607047C0460CED00E00400FA0570B5802504002D02064BAC4205D95868C8
:4013000000F09AF9044BE418F6E79868604300F093F970BDE80000200080FFFF10B5034B1B7B584300F088F910BDC046E8000020F0B5050087B000F088F9EB1E049003931B
:401340002D2B5BD8304B1B789D4204D82F4B1C782F4BE4B21EE02F4B1B789D4204D82E4B1C782E4BE4B215E02D4B1B789D4204D82C4B1C782C4BE4B20CE02C4B1B789D4271
:4013800004D82B4B1C782B4BE4B203E02A4B1C782A4BE4B21B78EA1EDBB20193284B294F9A5C059302922F2A04D92A2D02D919263E6008E03F233E681E40029BB34205D27F
:4013C000204B029A1A60052000F036F91B4B1E4AED182B780520DBB213601C4B019A1C601B4B1A60FFF79AFF029BB34206D9059B039A05209B5C3B6000F01EF9049800F0A8
:4014000028F907B0F0BDC04640F3FF0F41F3FF0F42F3FF0F43F3FF0F44F3FF0F45F3FF0F46F3FF0F47F3FF0F48F3FF0F49F3FF0F4AF3FF0F4BF3FF0F4CF3FF0F4DF3FF0F38
:401440002C2800002CFF0B4028FF0B401CFF0B4020FF0B40012370B5040080200E4900020A681D001A430A600C490D4A11600D490A6802430A60002C01D100200AE0012007
:40148000FFF74CFF084B1B682B42F6D1013C002CF5D1102070BDC04660F02E400220000078002E4010002E400C002E4001200A4A136883431360022311689943116007492D
:4014C0002E330A689A43203B1A430A6007220B68934303430B60704700F02E4000FF2E4010B5FFF7E3FF8021024A090613680B43136010BD00F02E400122104B70B51C684E
:401500001440002815D0904215D1022507261968A94319600A490A68B2432A430A600A682E35AA43103D2A430A601A681043186001E0FFF7BBFF200070BDC04600F02E4052
:4015400000FF2E4000000000000000000000000000000000000000000000000000000000FEB5494652465B460EB407462E4909688A462E4A12682E48022100F08BF80300BB
:401580002A480068C0182A4900F084F806001F3EB346234A126801219140C9430C000125002600F052F8814651460B6823400B605846043000F040F83800F040284090408D
:4015C0000B68234003430B60584600F035F80136072EF1D900200130012090400B68234003430B605846063000F026F8484600F030F8C046C046C0460EBC894692469B46BE
:40160000FEBDC046C046C046C046C046C046C046C046C046C046C046C046C046C046C046E400002050020020E0000020F800002000C20100000000000230800803D001387E
:40164000FDD1C046C046C0467047EFF3108072B6704780F3108870470160704710B5FFF75DFE10BD004870470202000002B4714649084900095C49008E4402BC7047C046C0
:4016800003B47146490840004900095E49008E4403BC7047002243088B4274D303098B425FD3030A8B4244D3030B8B4228D3030C8B420DD3FF22090212BA030C8B4202D332
:4016C0001212090265D0030B8B4219D300E0090AC30B8B4201D3CB03C01A5241830B8B4201D38B03C01A5241430B8B4201D34B03C01A5241030B8B4201D30B03C01A524124
:40170000C30A8B4201D3CB02C01A5241830A8B4201D38B02C01A5241430A8B4201D34B02C01A5241030A8B4201D30B02C01A5241CDD2C3098B4201D3CB01C01A5241830938
:401740008B4201D38B01C01A524143098B4201D34B01C01A524103098B4201D30B01C01A5241C3088B4201D3CB00C01A524183088B4201D38B00C01A524143088B4201D34F
:401780004B00C01A5241411A00D20146524110467047FFE701B5002000F006F802BDC0460029F7D076E770477047C046014B18687047C0465C0100200E4B70B500251E0066
:4017C0000D4CE41AA410A54204D0AB00F35898470135F8E701F05CF8084B00251E00084CE41AA410A54204D0AB00F35898470135F8E770BD9C2800009C2800009C2800003A
:40180000A4280000002310B59A4203D0CC5CC4540133F9E710BD03008218934202D019700133FAE77047000070B50500002944D00C1F2368002B00DAE418280000F00CF950
:401840001E4A13681100002B02D16360146031E0A3420DD92268A018834203D118685B688218226063600C6024E0A24203D813005A68002AF9D11E689819A0420BD12168F0
:40188000711858181960824214D110685268411819605A600EE0A04202D90C232B6009E021686018824203D1106852684118216062605C60280000F0D0F870BD6C02002043
:4018C000032370B5CD1C9D43083506000C2D01D20C2501E0002D01DBA94202D90C23336048E0300000F0B8F8234B1C681A002100002913D00B685B1B0DD40B2B02D90B606B
:40190000CC181EE08C4202D1636813601AE04B6863600C0016E00C004968E9E7174C2368002B03D1300000F02BF820602900300000F026F8431C18D00323C41C9C43A042C2
:401940000DD12560300000F088F8200007220B30231D9043C31A0ED05A42E2500BE0211A300000F00DF8431CEBD10C233000336000F073F8002070BD6C020020680200202C
:40198000002370B5064C050008002360FFF766F8431C03D12368002B00D02B6070BDC046800300200EB410B59DB002A9029008610B48822488604861012040421FABC881D5
:4019C000084804CBA400006801938C8100F0A8F80023029A13701DB010BC08BC03B01847FFFFFF7F5C01002030B514009BB005001A00002C04DA8B230360012040421CE0C4
:401A0000822368469B0083810023009104919C4200D0631E02930593012369465B42CB8128001E9B00F07CF8431C01DA8B232B60002C02D00023009A13701BB030BD0000A5
:401A400007B5009313000A00010002480068FFF7CBFF0EBD5C01002070477047F0B58E6885B007000C00039201939E4243D890238A89DB001A423ED0032509692368019801
:401A80005B1A029363695D43EB0F5D19029B6D1001331B18AB4200D91D00530510D529003800FFF70DFF061E14D0029A2169FFF7A9FEA289194B134080221343A38112E081
:401AC0002A00380000F0DAFA061E0CD121693800FFF7AAFE0C23402201203B60A38940421343A38117E0029B2661F61826606561019EED1AA560019BB34200D21E00320017
:401B00000399206800F0A5FA0020A3689B1BA36023689E19266005B0F0BDC0467FFBFFFFF0B59FB0029005938B890F0016001B0610D50B69002B0DD14021FFF7C1FE3860DE
:401B40003861002804D10C23029A01381360D8E040237B61002306AD6B6120336B761033AB7634002378002B03D1A31B049312D003E0252BF9D00134F4E7A31B32003900ED
:401B80000298FFF76BFF431C00D1B4E06A69049B944663446B612378002B00D1ABE00122002352426A6002A95432521801342B60EB60AB601370AB65534E2178052230000D
:401BC00000F03CFA002807D00123801B83402A68013413432B60EFE72B68DA0604D55322202102A8121811701A0704D553222B2102A81218117022782A2A03D0099B0020D4
:401C00000A210EE0059A111D12680591002A01DB099204E05242EA60022213432B6001340BE02278303A092A04D84B4301349B180120F6E7002800D0099323782E2B1ED128
:401C400063782A2B0AD1059B02341A1D1B680592002B01DA01235B42079310E000230A201A0001346B6021783039092904D84243013452180123F6E7002B00D00792234E40
:401C800021780322300000F0D9F9002806D04023801B83402A68013413432B60217806221B48661C297600F0C9F9002812D0194B002B06D10722059B0733934308330593FA
:401CC00014E005AB00933A00134B2900029800E000BF07E005AB00933A000F4B2900029800F08AF80390039B013304D06B69039A9B186B6135E7BB890B985B0601D501203C
:401D000040421FB0F0BDC0465C2800006228000066280000000000005D1A0000F7B5170001938A680B6900900C00934200DA130022003B6043321278002A01D001333B60EB
:401D400023689B0602D53B6802333B60062523681D401ED0230043331B785A1E9341226892061CD53020E1184331087021005A1C45310978A2184332023311700FE02200A8
:401D80000123193201990098089EB047431C0ED00135E3683A689B1A9D42F0DBDAE72200019943320098089DA847431C02D10120404220E006232068E1683A68034000252F
:401DC000042B03D18D1AEB43DB171D40A3682269934201DD9B1AED180027BD420AD0220001231A3201990098089EB047431CDED00137F2E70020FEBDF0B58BB006920A00DD
:401E000043320793059004920A7E0C00109B6E2A00D1ABE011D8632A22D009D8002A00D1B5E0582A00D0C5E045310A70814A4FE0642A1DD0692A1BD0BCE0732A00D1AAE0EE
:401E400009D86F2A29D0702A00D0B3E0202209680A43226037E0752A1FD0782A33D0A9E00E001A684236111D196013683370A4E021681A68080606D4490604D5111D19608A
:401E80000023D55E02E0111D19601568002D3BDA2D23049A6D42137036E021681A68080606D4490604D51568111D1960ADB202E0111D196015685F4B227E039308276F2A02
:401EC0001DD00A271BE022007821453211705A4A19680392081D226818600D68100602D4500600D5ADB2D30702D520231A4322601027002D03D1202322689A4322602300F0
:401F0000002243331A7002E00A274A4B03936368A360002B09DB0422216891432160002D05D1049E002B11D07BE0002D79D0049E28003900FFF734FC039B013E5B5C2800F9
:401F400033703900FFF7A6FB051EF1D1082F09D12368DB0706D563682269934202DC3023013E3370049B9B1B23612BE009681A68080607D4490605D5111D19601368A28A3B
:401F80001A8004E0111D1960136862691A600023049E236116E01A68111D1960166800216268300000F04AF8002801D0801B6060636803E0260042363270012323610023FC
:401FC000049A1370079B09AA00932100069B0598FFF7A4FE431C02D10120404227E02369320006990598079DA847431CF4D0236800259B070FD4099BE068984217DA180051
:4020000015E022000123193206990598079EB047431CE1D00135E368099A9B1A9D42F0DBE9E72600039B42361B7833708EE70BB0F0BDC0466D2800007E280000C9B282183A
:40204000904204D003788B4202D00130F8E70020704710B5884202D98B18984201D3002305E09B1A013A08D3995C8154FAE7934203D0CC5CC4540133F9E710BDF8B5060004
:402080000C001500002904D11100FFF719FC040018E0002A03D1FFF7C7FB2C0012E000F013F885420ED929003000FFF709FC071E07D021002A00FFF7A5FB21003000FFF7F4
:4020C000B3FB3C002000F8BD0B1F1A68101F002A04DA891804390B68D018043870470000002A00002300000038B5FFF7BBFA00F03DF803211948FFF7AFFA0120FFF7AEFA25
:4021000016483038406A04218007800F084381B2009012480C38FFF79FFA1148016802221143009189B2FFF797FAB8210D48FFF793FA0C48032109021438FFF78DFA094CDA
:402140005321D83C2046FFF787FA07210648FFF783FA54212046FFF77FFA38BD70F02E40001F2E40D8102E4098142E4010B5002400F006F8002800D00124204610BD0000E0
:40218000174902460B680020002B08D10A605207520F012A04D0022A10D0086012207047112292018A80CA80032252020A810122D2024A8140228A8105220DE00922520280
:4021C0008A80CA80012252030A810322D2024A81012252028A810422CA810A82704700005402002000000000090909204D657461646174613A204170706C69636174696F5C
:402200006E20496D616765205374617475733A2030782530325800090909204D657461646174613A20496D6167652053697A652028696E20666C61736820726F7773293AB9
:402240002030782530345800090909204D657461646174613A205374617274206F6620696D61676520696E20666C6173682028726F772023293A20307825303458000909B3
:4022800009204D657461646174613A204170706C69636174696F6E20636865636B73756D3A2030782530345800090909204D657461646174613A20456E6372797074696F3D
:4022C0006E20456E61626C65643A2030782530325800437573746F6D496E746572666163653A000943495F43616C634578744D656D417070436865636B73756D28293A00E8
:4023000009092043616C63756C6174656420636865636B73756D3A203078253034580009094170706C69636174696F6E2053746174757320696E2045787465726E616C207F
:402340004D656D6F72793A2056414C494400090909436F707920626F6F746C6F616461626C65206170706C69636174696F6E2066726F6D2065787465726E616C206D656DF2
:402380006F72792E0009094170706C69636174696F6E2053746174757320696E2045787465726E616C204D656D6F72793A204C4F414445442E0009094170706C6963617407
:4023C000696F6E20696E2074686520696E7465726E616C20464C4153483A20494E56414C49442E0009094170706C69636174696F6E207374617475733A204C4F4144454458
:40240000000909095363686564756C6520626F6F746C6F616461626C65206170706C69636174696F6E20616E64207265736574206465766963652E003D3D3D3D3D3D3D3D5C
:402440003D3D3D3D3D3D3D3D3D3D3D3D3D3D3D3D3D3D3D3D3D3D3D3D3D3D3D3D3D3D3D3D3D3D3D3D3D3D3D3D3D3D3D3D3D3D3D3D3D3D3D3D3D3D3D3D3D3D3D3D3D3D3D3D1C
:402480003D3D3D3D3D3D3D003D20202020424C455F45787465726E616C5F4D656D6F72795F426F6F746C6F61646572204170706C69636174696F6E20506572666F726D73FB
:4024C00020536F667477617265205265736574202020202020203D0009094170706C69636174696F6E2053746174757320696E2045787465726E616C204D656D6F72793ADA
:4025000020554E4B4E4F574E2E0009094170706C69636174696F6E207374617475733A20494E56414C49442E0009090948616C74204465766963652E00090950726F6772E6
:40254000616D20526F773A0009090920726F774964783A2030782530345800090909206170704669727374526F774E756D3A203078253034580009094578697420426F6FA5
:40258000746C6F616465723A000943495F57726974655061636B657428293A00090920534F503A2020202020202030782530325800090920434D443A2020202020202030FF
:4025C00078253032580009092053495A453A20202020202030782530345800090920466C6173682041727261793A2030782530325800090920466C61736820526F773A20A2
:4026000030782530345800090920436865636B73756D3A202030782530345800090920454F503A202020202020203078253032580009437942746C6472436F6D6D53746181
:40264000727428293A0009437942746C6472436F6D6D53746F7028293A0009437942746C6472436F6D6D526573657428293A0009437942746C6472436F6D6D577269746544
:4026800028293A003D2020202020202020202020202020424C455F45787465726E616C5F4D656D6F72795F426F6F746C6F61646572204170706C69636174696F6E20537460
:4026C00061727465642020202020202020202020202020003D202020202020202020202020202056657273696F6E3A20312E3020202020202020202020202020202020201E
:4027000020202020202020202020202020202020202020202020202020202020202020202020200031363A33363A3432004A756E2031352032303230003D202020202020FB
:402740002020202020202020436F6D70696C65204461746520616E642054696D65203A202573202573202020202020202020202020202020202020202020202020202020C6
:402780002020202020202020006361757361202530385800584D454D5F696E697A00584D454D5F65726173655F626C6F636B00584D454D5F7265616400584D454D5F7772F6
:4027C000697465000D0A2573282530385829000D0A457261736520736563746F723A20307825303458000D0A257328253038582C20256429002E2E5C4C69625C786D656D7C
:402800005C636F645C786D656D2E63004552522025732025640009005B25645D2000253032582000AA116D1A003C0101030405060708090A0B0C0E0F10111213141516172B
:4028400018191B1C1D1E1F2021222325262728292A2B2E2F3031323334354300232D302B2000686C4C00656667454647003031323334353637383941424344454600303137
:4028800032333435363738396162636465660000F8B5C046F8BC08BC9E4670479D010000D90A0000F8B5C046F8BC08BC9E46704775010000C8280000D00000209000000024
:4028C00028020000000000000000000088030020E0200000E42000000000044005000000010000000000C05D80BB000030000000006CDC02000000000000000000000000E3
:4029000000000000000000000000000000000000000000005A2800000000000000000000000000000000000000000000000000000000000000000000000000000000000015
:402940000000000000000000000000000000000000000000FC000020000000000000000000000000000000000000000000000000000000000000000000000000000000003B
:402980000000000000000000000000000000000000000000000000000000000000000000000000000000000000000000000000000000000000000000000000000000000017
:4029C00000000000000000000000000000000000000000000000000000000000000000000000000000000000000000000000000000000000000000000000000000000000D7
:402A000000800020112A0000BD950000BD95000010B5024B83F3088806F0F0FD00800020F8B572B680250024514EED0034602A00210050480AF031FC2A0021004E480AF0D9
:402A40002CFC992390214D4A1B0413604C4A0903116006214B4A302713604B4AA02513604A4A13604A4A13604A4A13780B4313702222494B1A311A60484A494B1A60802354
:402A8000484A9B001360484A1160484A48491760484A11604849494A1160A221484A11604849494A1160494A13601222484B1D60484B1A6007F0AEFF474808F011F9012039
:402AC00007F0B4FF380007F011FE80230221434F434ADB053B601368FA200B431360414A414BC0001A600822404B1C6033689343336007F08DFE3E4807F0EEFDBC229C212D
:402B00003C4B92011A603C4B3C4A49021A603C4A01201160C8213B4A49011A603A4A11603A4A1A6082223A4B12061A608022394BD2021A604122384B1A60384B01321A6033
:402B4000374B023A1A608023DB053B600323354A1360354A13608022344B12061A60344B1D60344B1D60344B1C6006F019FDF8BD6CF02E4000300F4000400F400000024074
:402B80000003024000500F4010500F4020500F4030500F4000700F400000044038100300080004400C0004401800044000010440894D020008010440706C07000802044013
:402BC0000003044056121800080304400C0304401803044030001040001BB7000C020B4078002E402D3E00007C002E4064F02E40DC050000040301400000014041FF00803B
:402C00000803014042FF00800003014040FF008008010B4000010B40180101400801014004010140300030403000314000003A4000033A4040033A40000E3F4010B5064C61
:402C40002378002B07D1054B002B02D0044800E000BF0123237010BDE01600200000000070130200084B10B5002B03D00749084800E000BF07480368002B00D110BD064B36
:402C8000002BFBD09847F9E700000000E416002070130200A80E002000000000F7207047014B18787047C046FC16002070B504F0FBFA05F0D1FF62B6012504F031FA04F02D
:402CC00083FA04F01FFC2F4A2F49304804F0D4F9F72200212E4804F0CFF92E4B2E4C1B682B4204D02D4804F00FFA002311E01A0704D52B4804F008FA25700BE0DB0604D5D8
:402D0000284804F001FA022303E0274804F0FCF90323237001F002FA012004F0BFFA234B234A1968234804F0A7F904F029FC04F077FA05F013F807F0DCFF040004F086FA3D
:402D4000050005F013F82B1C854200D9031CDBB2012B10D0022B10D105F024F802F018FF04F018FA07F012FE04F018FA02F014FF05F019F801E007F0FBFD200007F0BDFFC6
:402D8000D3E7C046841302008D13020099130200A3130200C8000020FC160020AD130200C0130200D9130200EB13020044F2FF0FAA116D1AF9130200194A002311001E3199
:402DC0008B70CB70110022310B704B708B70CB70110026310B704B708B70CB7011002A319373D373137453749374D374137553759375D375137653769376D376137753770D
:402E00009377D3770B704B708B70CB7011002E310B70110030322F310B7013707047C046001700200220704707B510236A46138000239370054B02211B88684693800123F6
:402E4000937104F0D1FD06F069F807BDE239020070B506000C200C0004F0ACF93F22051E02D00C2C06D044221049114804F004F9002416E0220031000AF006FA0D4B280004
:402E8000596B03F053FB041E05D14B220749084804F0F2F805E0052004F016FB04F0D2FE0400280004F08AF9200070BD2A140200341402000017002010B5094C210020004B
:402EC000383158300EF00EFB002805D0932205495200054804F0D0F800237834237010BD001700202A1402003414020010B504F083FE10BD10B502F083FB10BD0C4910B56C
:402F00000C0078342378002B07D10800062271300AF0BAF90123237008E006490648322204F0AAF83221032004F0F2F910BDC04600170020101402003E14020037B5234D62
:402F40002B0079331B782C00002B0CD152222049FF32204804F090F828000622290071300AF092F930E001AD280002F0DDFF002807D02B78A3716B78E371AB7823720023A6
:402F8000637203F059FA020AA072E272020C000E22736073312322000121142004F0B0FC00280BD023007A331B78002B06D06B460122D91C1A200A7004F06AFE7B3420780D
:402FC000002801D1FFF79AFF37BDC046001700202A1402003414020010B501F023FE011E03D058221D2004F0D7FC0C2004F0E2F8041E09D003F066FA0A4B0C22586321009F
:40300000182004F0C9FC04E061220749074804F033F8200004F0D2F8FFF790FF002004F075FD10BD001700202A1402003414020070B5124C0125230079331D70104B20265D
:40304000188819F053FD20000E4B3200D96838300AF01AF90C49102208311F2004F09CFC32000A49162004F097FC21002A007C31212004F091FCFFF7AFFF70BD0017002067
:40308000E2390200380F00201014020010310020084910B5030A087004007F2003401A004B78834313434B70FFF748FF200002F097FA10BD001700207FB50D00012102780F
:4030C000114B04000A407A33002A01D0197000E01A7001AE0C22002130000AF0DEF81B230A4A33810021253330000194B58019F05DFD002804D0064A0649074803F0BCFFD9
:40310000012004B070BDC04600170020403200206F0400002A1402003414020070B502F011FA03000320002B5DD101F07BFD041E58D00A2203780920134254D105250138C0
:403140002B4250D1DB064DD523003C3318785A7802331B78120202431B0413431A0023003F331B781B0613431F4A934201D8062039E023003033197801331B7801201B0209
:403180000B431A00230032331E7836043300134322003332167836061E4303F063F9B042E5D8627D207DA37D120202431B041343C2261A00E37DFF361B0613432800B34281
:4031C00011D8230028331D785A7802331B7812022A431B0413431A002B3423781B061343B34200D8022070BD407E050010B501F0DDFC041E06D107488722074903F03CFFDB
:40320000200005E001F097FD0130441EA041C0B210BDC046341402002A140200054B10B578331B78002B04D000220349012003F0DFFF10BD00170020B92E000070B51C00E3
:40324000C223FF33050001209D4209D8994207D8044B9A4204D903F005F984428041404270BDC046407E0500F0B504784578411C9BB006002200B64805F002FB071E00D00C
:4032800093E2B31C033C0193A4B2682D33D011D8342D47D005D8152D20D0272D00D082E240E0542D3ED0612D00D11FE1442D00D079E237E0AA2D00D147E205D8722D31D002
:4032C000842D00D190E16EE2EE2D00D1D9E1FC2D00D1C8E1BB2D00D065E227E1002C01D09C4A0BE002F02EF9002801D09A4A27E201F02EFCC3E1002C06D0984A9849994809
:4033000003F0BAFE3C003DE302F01CF9002801D0954A15E201F092FC041E00D132E3FFF74BFD9DE1042C01D0904AB1E002F00AF9002801D08E4AABE001F074FC011E01D15E
:403340008C4AA5E004AE5822300009F09DFF2200019903A809F098FF039C002C03D103F06BF8039005E001F0E6FC844201D2824A8EE0442D32D004D8272D5FD0342D05D0EF
:4033800015E2542D41D0722D7DD010E2039CF36AA34201D9794A7BE002F0D6FB0421784A2000D37B8B43D37303F04CF80320F46203F070F80400306303F03EF80023A042D1
:4033C0005B410124022123405A00337870698B4313433370F26B336BB16A7DE0039CB369C622A3422FD8200003F02CF80123042200215B42F36133623378B461934333707E
:403400007162B162336BF26B31E0039C7368A34201D95C4A3CE0200003F014F801237460012400205B42B360F36033783061A34333707061336BF26BB16A4DE0039C736BEA
:40344000A34202D9CF22920022E0200002F0FAFF01235B42B36300230821336473643378494A8B433370B16A336B7463F2637069FFF7E4FE012310221840030130789043F9
:403480001843307093E1039D7368AB4206D93F4A3349344803F0F0FD002473E2B3699D4201D23B4AF4E7280002F0CCFF002001220124010033785242B260F260F261326276
:4034C000A343053293433370F26B336B756030617061B5617062B062FFF7B0FE10230440200134789C430443347060E1DF22002C00D0E7E002F026F8002801D0254A1FE1DB
:4035000001F090FB011E01D101243BE2582204A809F0BAFE002304A81893199301F04EFB041E00D004E1E322920009E1002C01D0194AE3E602F006F8002801D0174AA7E74C
:403540007F230F4E74789C432CD1154AF8E0C04698C60000BB020000BE020000C70200002A14020034140200CA020000DD020000E3020000EA020000FD0200000603000095
:40358000001700202A03000000A24A044E030000530300007F030000970300009A0300009D03000001F03EFB011EADD0102403782342A9D004AD5822280009F065FE2B7812
:4035C0002800A3432B7001F0F9FA041E0AD0012700217D360220377002F058F858232A003900A8E0C94AABE00B2C01D0C84A85E601F0A8FFF122002864D1C64D6B78DB09D0
:4036000001D1C54A44E701F096FB0190FFF7D4FB019B013309D1C14AC149C24803F02CFD1022EB7B1343EB7315E001F0FBFA002800D1CAE00378DB0600D1C6E0BA4AB8491F
:40364000B84803F019FD1022EB7B1343EB73AB7B92181343AB73002428000E3001F0EEFAFFF76CFC8EE1F422002C2BD1A94B5C787F239C4301D1AD4A62E001F08DFF04006E
:4036800080E10A2C01D0AA4A38E601F054FBF822431C17D10422B11C03A809F0F5FD039D6B1C01D1A34A29E6A34B9D4201D8A34AEEE601F0EDF90100B01D03F09BFA071EB8
:4036C00002D1FD22920019E6280002F0BBFE02F0B3FE050001F0FCFA041E30D02900984803F0CAFC5822002104A809F0D6FD01235B42069307930B930C931293914B032019
:40370000139305950A950F95119502F0C3FE109004A801F053FA041E0FD0FFF767FD7F227C49C3014878104018434870FFF706FC582304AA01211D2032E0B72200E0BB2253
:403740007749784803F098FC1CE1002C01D07E4A0AE001F0F7FE071E01D07C4A10E005F0EFFB041E06D07A4A6D496E4803F084FC3C000FE0022003F045FD021E05D0754A54
:403780006749684803F078FC04E07349022003F02FFD0124012121200B005E4A7C32117004F0AEF8EEE06D4A72E66D4A70E6300001F004FA041E06D06A49072001F066FF2C
:4037C00058233200B6E7DD22AEE6022202AB9F1CB118380009F058FD347A012C05D13B88002B0DD150333B800AE0002C35D0022CF5D0FF2C04D021005B4803F03DFCFF2436
:403800002B003F882E331F702B003A0A2F331A702B00311D3033042203A81C7009F034FD31000422093104A809F02EFD039E002E18D0414B9E4201D84C4A09E0049B9E428D
:4038400001D94B4A04E0019BB34200D896E0494A3349344803F010FC04E03B88002BCFD10633C0E700230493049B00229E4200D29A1B2100380003F029FA00283BD03E4E2A
:40388000300003F022FB727D307DB37D120202431B0413431A00F37D1B061343190AAB74E974190C1B0E29756B75727E307EB37E120202431B0413431A00F37E1B06134323
:4038C000190AAB75E975190C1B0E29766B7601F055FE041E00D1BFE60127AB7B00213B430320AB7301F0D2FE202332003900162004F006F8B0E60822AB7B04001343AB735A
:40390000EB7B073A1343EB73A6E6C046AF030000C103000000170020C70300002E0200002A1402003414020035020000D3030000DA030000ED0300007FCCC100F10300008F
:403940005D14020000A24A0402040000050400000E04000012040000292E00004C04000051040000252E00004B140200660200006A0200006E02000010310020300002F036
:4039800061FD71E720001BB0F0BDC04607B505F0DDFA6A46064B02211B886846138000239370103393800F3B937104F01DF807BDE23902007FB5214D04002B007B33187068
:4039C0002E0000282DD1052003F07EFD2B007A331C706B4601AD0C22210028001C8009F05CFC6B4601930223AB8019332B81144A23002100280019F0D9F8002804D0114A31
:403A00001149124803F038FB7C363078002803D00020FFF709FA01E0FFF7B8FFFFF7DCFA0AE003207C3503F079FC2B78002B03D11E21052003F02AFD7FBDC0460017002025
:403A400040320020BC0400002A1402003414020083880F22F0B51D00C64C0168A6781140964315400E432D0132402A430325A2701A091B0B2B40E2701A00237999B0AB43C9
:403A80001343237183683F209EB22279304080002A400243B60922716671052900D964E1080007F051FA680D031F364C02F0C4FC020AA074E274020C000E2275607554E18B
:403AC000AD4A1168012903D001211160AB4A136002F0B2FC020AA075E275020C000E2276607642E1A4490A680D00032A00D13CE1A248012A0AD1210002681E319A1AA2777B
:403B0000140A4C70140C120E8C70CA7003222A6013E099490A68042A00D126E19748032A09D1026822349A1A150A22706570150C120EA570E27004220A60036015E18E49F1
:403B40000A68052A00D110E18C4D042A03D12A6826349A1A04E0032A09D12A6822349A1A100A22706070100C120EA070E27005222B600A60F9E080490A680800062A02D18B
:403B800000230B60F1E0002A00D1EEE01D0AE5761D0C25771D0EA3766577052A0BD1774A12689B1A2200190A2A3213705170190C1B0E9170D3700025056020000E3001F02B
:403BC0003DF82900582202A809F067FB01235B420493059309930A930E931093684B119301F020F80100A84203D0582202A809F04BFB079B634A019301330793D57F624A49
:403C00000126D17F614A09022943F425D27FFF3512040A4311009D429B415D4A554CD27F12060A4306998A1806925A4202AB1B780191B343134302AA13700E9F02F0FCFBC8
:403C400000221300B84253411E4073009C4602AB1E7802239E430C9B591C23000C912A331F7823002B331B788D42AD411B023B43180023002C331B786D421B0403432000E8
:403C80002D300078AD00000603430B98C3180B9363461E4304239E432E4302AB1E70139B019301331393374BDE7F374BD87F374B0002DB7F30431B0403431800344BDB7FE1
:403CC0001B06034312980190C01812901198834202D8C31A119300E01192119A082553425341D80002AB1B78AB43034302A8037023007D331B78002B0DD10E9B0798FFF745
:403D00009DFA012302AA18400301107810229043184302AB1870149B01331493169B019301331693E27EA07E237F120202431B0413431A00637F02A81B061343159AD21853
:403D40001592179AD3180192179300F037FF002806D0582302AA01211D2003F0D1FD04E00C4A0D490D4803F087F9FFF7E7F819B0F0BDC04600170020AC0E002080170020E7
:403D800000A24A04031700200417002005170020061700205B0500002A1402003414020010B50400152800D9C4E007F0CDF80B1322342C3F3F3F475C616A6A747F8A964272
:403DC000A2B5B5BA00235F495F488B73CB730B744B74ACE000235B4C5C48A373E3732374637403F091F97723A27B5B421343A373A4E0574803F040F9002252494123CA7353
:403E00000A744A7410E0534803F036F940214D4A937B8B433DE0504803F02EF9002201234849CA730A744A748B7387E001004B4882E04021434AD37B0B43D37321004748CB
:403E400003F01AF901213F4A937B8B430B3193730B4202D10A390B4393736E23D17B0420194056D053E04021364A937B8B4393730121344A0420937B8B430021937301F08E
:403E800005FC2100364803F0F7F804212D4A937B0B43937352E0334803F036F9012229498B7B9343173213438B7330E02E4803F02BF90821234B9A7B0A439A730639DA7B6E
:403EC00009E02A4803F020F908211E4B9A7B0A439A73DA7B18310A4309E0254803F014F90820184B997BDA7B014399730243DA7324E0204803F008F90121124A937B8B4389
:403F000007310B439373D37B04390B43D37300210A2001F0BBFB11E008210A4A937B0B4393730421074A1348D37B0B43D37303F0EBF803E00100104803F09EF8FEF7FEFFD4
:403F400010BDC0460017002071140200811402009F140200B6140200CE140200E7140200F014020006150200241502003C1502006A15020099150200B415020070B50028BD
:403F800000D19AE04379047982791B022343120419001300C2790B4312061A43474B140A9A74DC74140C120E1C755A75417A057A827A0902294312040A431100C27A12069C
:403FC0000A43140A9A75DC75140C120E1C765A76417B057B827B0902294312040A431100C27B12060A43140A9A76DC76140C120E1C775A77417C057C827C090229431204A1
:404000000A431100C27C12060A431900140A9A77DC771E31140C120E8C70CA70417D057D827D0902294312040A431100C27D12060A431900140A22310A704C70140C120E51
:404040008C70CA70417E057E827E0902294312040A431100C27E12060A431900140A26310A704C70140C120E8C70CA70417F057F827F0902294312040A431100C27F120675
:404080000A431900140A2A310A704C70140C120ECA708C70421CD17F821CD27F033012020A4319002E310A701900120A2F310A70C27F30331A70FEF741FF70BD001700207C
:4040C00070B5144D144C6A7D287DAB7D120202431B0413431A00EB7D1B061343190AA374E174190C1B0E217563756A7E287EAB7E120202431B0413431A00EB7E1B06134395
:40410000190AA375E175190C1B0E21766376FEF715FF70BD1031002000170020F0B599B000F0ACFB5B4802F0B9FE31215A4802F0A3FF2021594802F09FFF5821584802F08C
:404140009BFF1021574802F097FF5749032003F0B3F802F05DF901F04DFE01F0DBFE00F025FD041E57D000F05DFD011E43D0F424582202A809F088F8079BFF3400939C42CC
:404180009B4101255A4202AB1B78AB43134302AA13700E9E02F050F90023B0425B4102212B405A0002AB1B788B43134304220C9993438C42A441119A0091019251424A4189
:4041C00008216442A4002343D2008B43134302AA13700E9B019A00990798FFF72FF802AB054028011D7810239D4302AB054318001D7000F0E3FC012002F038FF2B492C48CA
:4042000001F06CFC01F038FA01F0E4F82949012001F03CFA08E002F029FF2000210001F05DFC254801F0A2FB2449052003F024F9FEF7DCFF7F22224CC3016078104018432B
:40424000607000F025FC070000F07BFB002F1FD000281DD01B4E0B2230003900103009F013F82000184B20229968583009F00CF820001649022218316F3009F005F830007E
:40428000351D2030032103F013FB280003F016FB19B0F0BD10310020C0150200DE150200F51502000F160200FD2E0000F52E0000913000001D3100002D430000ED2E00004D
:4042C00000170020AC0E0020380F00201014020010B506F0F3F843425841C0B210BD10B506F0E4F843425841C0B210BD10B505F069FE10BD10B5FFF7EBFF43425841C0B206
:4043000005F060FE10BD10B505F050FE10BD10B5FFF7E5FF43425841C0B205F047FE10BD10B5012101F034FB10BD00007FB505000B00141E00D08FE1422803D92800FFF764
:40434000EFFF3EE206F00AFE43004800FAFFFAFFFAFFFAFFFAFFFAFFFAFFFAFFFAFFFAFFFAFFFAFFFAFFFAFFA30098008A007F00B800C50071006600FAFFFAFFB100FAFFD4
:40438000FAFFFAFFFAFFFAFFD000F100D200D400E000E700FAFFFAFFFAFFFAFFFAFFFAFFFAFFFAFFFAFFFAFFF3001A012D0101010E013E01FAFFFAFFFAFFFAFFFAFFFAFFCF
:4043C000FAFFFAFFFAFFFAFF550178017A0100232200190000201AE000F05AFB040000F0B0FA231E02D00300581E834101241A0002A822400270002B02D10221012028E1DC
:4044000000F0A6FB0028F8D000222000110001F0DDFAD6E100F08FFB0400021E02D009F023FC82B221001720F1E7002361B2180000F03BFB002803D0002216201100E6E798
:404440000221162005E100F0D0FA0400021E02D009F00AFC82B221001320D8E7002361B2180000F07CFA002803D0002212201100CDE702211220ECE000F00AFB0400021E05
:4044800002D009F0F1FB82B221001120BFE7002361B2180000F0B6FA002803D0002210201100B4E702211020D3E0FEF7F7FB0422029002A91A20AAE70023180000F018FADA
:4044C000002803D0002214201100A0E702211420BFE000F036FA0100021E00D00622152095E7012C00D10BE1202028E7222026E7002001F019FF002803D0002223201100D1
:4045000085E702212320A4E001F032FF02A90870012224207BE701F031FF02A908800222252074E7012C00D11AE1212007E701F037FBFA2302A908809B00984202D90221F1
:40454000302086E00222302061E702A801F05EFC002804D00A2102226944332057E70221332076E002A801F051FC002803D0022202A934204BE7022134206AE002AC2000B8
:4045800001F0D2FC002805D0AF230021625EDB009A4202D1022131205BE002222100312035E702AC200001F0BFFC002802D0A378C82B02D1022132204BE00A2101226944B1
:4045C000322024E7002302AC237001F006FF002803D1012223781343237001F005FF002803D102222378134323700122210035200DE76B46DC1D002302AD2800237004F010
:40460000D5F92B781F2B08D166336A88FF339A4203D1012223781343237002F0C9F9002803D00222237813432370012221004020EDE6072C00D1B1E0412080E602A802F00C
:4046400091FA002803D0072202A94220DFE60221422001F09DF9B4E0422800D96EE606F07DFCB7FE43006DFE6DFE6DFE6DFE6DFE6DFE6DFE6DFE6DFE6DFE6DFE6DFE6DFEAC
:404680006DFE17FF4900FEFE4700AB004D00E5FE45006DFE6DFE4B006DFE6DFE6DFE6DFE6DFE40FF61FF6C0079007B007D006DFE6DFE6DFE6DFE6DFE6DFE6DFE6DFE6DFE56
:4046C0006DFE8F00950097009100930099006DFE6DFE6DFE6DFE6DFE6DFE6DFE6DFE6DFE6DFE9B00E8FFA900012028E6172026E6132024E6112022E61A2020E615201EE61D
:404700001D782E006D08264030002540FFF7FBFD2800FFF7EBFD200005F0C8FFFFF7DFFD864207D1FFF7D4FD854203D10022202011006CE6022120208BE7012C00D0D5E650
:404740001878431E9841C0B201F04EF80022222011005CE62320F2E52420F0E52520EEE51B78022B03D8174AD05C002802D1022121206EE701F050F800222120110046E60F
:404780003020DCE53320DAE53420D8E53120D6E53220D4E53520D2E54020D0E5180002F057F9002803D00022412011002FE6022141204EE74220C2E5062A00D17DE6142035
:4047C000BDE57FBD1E16020070B50022050068260120084B1C688A420BDA002809D0AB5C0132E3185B7852B2B343581E8341D8B2F1E770BD2C16002010B501000400FE220A
:40480000074804F03DF840BA230080B2FE331870000A58702100002004F0A0F810BDC04690D4000070B501000400FE22124804F027F840BA23001425FE3380B21870000A20
:4048400058700CF0AAFE002806D0022804D0012005F02CFF002300E00123013D002D02D0002BEED002E02800002B03D02100012004F074F870BDC04669E5000010B504F05E
:404880001FF88020400002F095FC041E27D00100012004F03DF800280DD0802221005200114803F0EDFF002805D00023200023706370FFF7B7FF2100002004F029F80028F8
:4048C0000DD0802221005200084803F0D9FF002805D000222000E2712272FFF78DFF200002F06CFC10BDC04669E5000090D4000070B505008020400002F05CFC041E01D1BC
:40490000002519E00100002004F002F80028F7D0002D06D106222900200008F0BEFCA57106E000230622A3712900200008F0ACFC2000FFF761FF0500200002F03FFC280000
:4049400070BD10B5002003F0C1FF0200811D1378002B03D101328A42F9D1180010BDF8B5050080200E00400002F024FC33005A1E93415B4204001D40002830D00100002022
:4049800003F0C6FF00282AD02700093711220021380008F082FC002D06D1237AE2791B0213430222934312E0102E18DC31002800FFF70AFF002812D032002900380008F03A
:4049C00063FC237AE2791B02134302221343E3711B0A23722000FFF70FFF050000E00025200002F0EBFB2800F8BD10B5002003F06DFF0223C27913401A1E01D00200093225
:404A0000100010BDF8B5050080200E00400002F0D1FB33005A1E93415B4204001D40002830D00100002003F073FF00282AD027001A3711220021380008F02FFC002D06D1C3
:404A4000237AE2791B0213430122934312E0102E18DC31002800FFF7B7FE002812D032002900380008F010FC237AE2791B02134301221343E3711B0A23722000FFF7BCFE47
:404A8000050000E00025200002F098FB2800F8BD10B5002003F01AFF0123C27913401A1E01D002001A32100010BDF8B5050080200E00400002F07EFB33005A1E93415B426C
:404AC00004001D40002830D00100002003F020FF00282AD027002B371A220021380008F0DCFB002D06D1237AE2791B0213430822934312E0192E18DC31002800FFF764FE9E
:404B0000002812D032002900380008F0BDFB237AE2791B02134308221343E371D34020002372FFF769FE050000E00025200002F045FB2800F8BD10B5002003F0C7FE0823C3
:404B4000C27913401A1E01D002002B32100010BD70B505008020400002F02CFB041E01D100251EE00100002003F0D2FE0028F7D0E379217AE21D002D03D109020B431021D4
:404B800005E0287809020B431021002801D18B4300E00B43E3711B0A53702000FFF72CFE0500200002F00AFB280070BD10B5002003F08CFEC079C006C00F10BD70B50600DB
:404BC0008020400002F0F6FA041E01D1002524E00100012003F09CFE0028F7D0A51C58220021280008F059FB637822781B021A430123002E04D19A432270120A627008E00D
:404C0000134323701B0A637058223100280008F03BFB2000FFF706FE0500200002F0CEFA280070BD10B5012003F050FE0123027813401A1E00D0821C100010BD70B506007E
:404C40008020400002F0B6FA041E01D1002525E00100012003F05CFE0028F7D025005A3523220021280008F018FB637822781B021A430223002E04D19A432270120A627075
:404C800008E0134323701B0A637023223100280008F0FAFA2000FFF7C5FD0500200002F08DFA280070BD10B5012003F00FFE0223027813401A1E01D002005A32100010BD8A
:404CC00010B502F039F910BD10B502F067F910BD70B505008020400002F06CFA041E01D1002523E00100012003F012FE0028F7D0637822781B02691E1A430823033104D9D6
:404D00009A432270DA4062700CE0134323701B0A637023002A0A7E331D705A702A0C2D0E9A70DD702000FFF77DFD0500200002F045FA280070BD10B5012003F0C7FD0378D1
:404D400004001B0712D503007E33197801331B7881341B020B431A0003008033187800040300207813430006184301E00120404210BD000070B5154D86B0AB6805AE01333C
:404D8000AB6000F043FD002304003000059301F03DF801F051FB7388AA890393338801000293E31E043C5E425E4163426341019600932B68064802F05FF92800FEF748FED0
:404DC0000121080002F062FB06B070BD841700201419020010B5034B00220321186903F049FC10BD8417002010B5034B00220221186903F03FFC10BD8417002010B515204A
:404E0000FEF7CEFF002010BD10B51420FEF7C8FF002010BD10B50C20FEF7C2FF002010BD10B51320FEF7BCFF002010BD10B50E20FEF7B6FF002010BD10B50B20FEF7B0FFDA
:404E4000002010BD10B51220FEF7AAFF002010BD10B50A20FEF7A4FF002010BD10B50420FEF79EFF002010BD10B50920FEF798FF002010BD012370B51E4D5B42AB810023E0
:404E80001D4C2B75AB60627F207FA37F120202431B0413431A000121E37F08001B0613436B6002F0F3FA637D217DA67D1B020B4336041A003300E67D13433606627E1E43DE
:404EC000207EA37E120202431B0413431A00E37E1B0613439E4203D10320FEF761FF06E00220FEF75DFF0121286903F0E9FA002070BDC046841700201031002010B50020D1
:404F000002F0E2FA10BD10B5002002F0DDFA022000F082FC10BD10B5FFF7F5FF10BD000010B50520FFF7CCFE0523094C20002360FEF78EFD042000F06FFC0020054AA06116
:404F4000D17893780902194302F0A0FA10BDC0468417002010310020002370B50A4D0B4CAB60627F207FA37F120202431B0413431A000121E37F08001B0613436B6002F0B0
:404F800085FAFFF7CDFF70BD841700201031002010B50420FFF794FE0423164C20002360FEF756FD032000F037FC1348437C027C1B02134322000400002B11D0C17C837CC3
:404FC000090219430CD001239361437A047A1B022343D361994200D919001162002005E000209061617A237A0902194302F04EFA10BDC046841700201031002070B50220BF
:40500000FFF75EFE022310480360FEF721FD0F4E727E347E120222431000B27EF17E1204024309061143727D347DB37D120222431B0413431A00F37D00201B061343C91A84
:4050400002F024FA70BDC046841700201031002010B5012002F038FA0020FFF731FE002302480360FEF7F4FC10BDC0468417002010B5002002F028FA002000F0B5FB022064
:4050800000F0CAFB10BD10B501F0A2F9002002F01BFA002000F0A8FB022000F0BDFB10BD70B503250320FFF70BFE104C20002560FEF7CEFC012000F097FB280000F0ACFB1B
:4050C0000B4801F061F90B4AD179937909021943537910791B020343994201D1002300E001230020A36102F0D1F970BD84170020E94D00001031002010B501F007F910BD92
:4051000010B50120FFF7DCFD012304480360FEF79FFC034801F008F910BDC04684170020E94D0000194910B58B690A00087D002B1CD1174B022808D1D97A987A94890902A2
:4051400001438C4201D208201BE0012191615978187809020A00D9780243987809020143511A002002F092F909200DE0022807D1074B89899A7ADB7A1B0213439942E2D3B8
:405180001120FEF70DFE002010BDC046841700201031002010B5FFF7C5FF10BD10B50820FEF7FEFD024B0021186903F089F910BD84170020084910B50B7D022B09D1074BA3
:4051C00089899A7ADB7A1B021343994201D2FFF7E5FF002010BDC0468417002010310020094910B58B69012B0CD10B7D022B09D1064B89899A7ADB7A1B021343994201D29A
:40520000FFF7CCFF002010BD841700201031002010B5094B094C9A7BDB7BA1891B021343994206D90F20FEF7BBFD0521206903F047F9002010BDC0461031002084170020A7
:4052400010B5104B104CDA7B997BA08912020A43824204D20F20FEF7A3FD05210CE0A269022A0CD11A7B5B7B1B021343984206D30620FEF795FD0421206903F021F9002022
:4052800010BDC046103100208417002010B50B4B0B4C1A7B5B7BA1891B021343994207D21020FEF77DFD0521206903F009F902E00620FEF775FD002010BDC04610310020CB
:4052C00084170020164870B58469012C0ED8154985894B7B0A7B1B0213439D4204D30620FEF75EFD002019E0002C02D1FFF7CEFF14E04C790A7924022300CC7913438A791C
:40530000240214431C1B022321008361064801F0B3FE0020210002F0B9F8092070BDC04684170020103100202D19020070B5154CA069002804D10720FEF732FD002020E004
:40534000E369226A9B1AE361F5D00F4D012806D10223A36100F048FA2B7C697C06E001230020A36100F040FAAB7CE97CE26909021943914200D911000020216202F086F8EE
:40538000092070BD841700201031002010B500F0EFFF002809D0094801F0B6FE084B0021186903F08DF80D2003E0064801F0ACFE0520FEF7F5FC002010BDC0463919020029
:4053C000841700204B19020010B51520FEF7E8FC002010BDF0B54E4985B0002002F04CF84C49012002F048F801234B4C5B42A38100232375FDF754FC0394032800D984E0A3
:40540000464E474F474D05F09FFD02360236FFF75BFC052828D805F097FD3A030523252C022267E0404B597E1C7E9A7E0902214312040A431100DA7E587D12060A43197D6A
:40544000000208430400987DDB7D000420431B0603430A3393429B4102225B42D21A49E0032247E0042245E0304A3149314801F003FE05223EE0FFF727FC052809D805F085
:4054800063FD0303030D0D0D0020FEF789FC002230E0294A2649274801F0EEFD0120FEF77FFCFFF700FC041E01D1244A10E02000FEF764FDE31CD97F631C0234E07FDB7F53
:4054C00000021843002201F001FC00280FD11C4A1749184801F0D0FD0A210022124B9970053119700E39DA705A709972DA72FEF7E7FD0622330003984033403501931030A4
:4055000000953300390002F0F1FF05B0F0BDC046D54D0000754D000084170020241602006B190200A416020010310020610300005C19020034140200110300001E03000048
:405540002503000007B5094B01A9186902F0A8FF002806D00648074A074901F08DFD012003E00198431E9841C0B20EBD84170020341402008E0300005C1902000022054B34
:4055800010B51869110003F075F843425841C0B210BDC0468417002037B50D4D01A9286902F07EFF021E06D00A4A0B480B4901F063FD00200AE0019C002C02D1EA229200A0
:4055C000F3E70121286903F055F801203EBDC04684170020A5030000341402005C190200064B10B51A7D002A01D102321A75988100220421186903F03DF810BD841700209B
:40560000012210B5034B05211A751869002203F031F810BD8417002010B5022001F07EFE0020FEF770FE0020FEF760FE0022054B1A705A609A60DA601A615A619A61DA6198
:405640001A6210BDA817002010B5FEF760FE10BD10B5FEF75CFEFEF74DFE10BD10B5FEF749FE10BD10B5FEF752FE10BD10B5FEF74EFEFEF73FFE10BD10B50349022001F02E
:405680001BFEFFF7C9FF10BD9157000070B5394C050023780E0083426AD0FFF7BDFF681E092855D805F050FC0514182327313E27314A0120FEF727FE0120FEF717FE052316
:4056C0006360033BE3607B336361A3612A4B3EE00120FEF718FE3BE00120FEF714FE0223E360FA239B006361A361244B2FE00120FEF7FCFD2CE00120FEF7F8FD0223E360FA
:40570000F8336361A3611E4B21E00120FEF7FBFD0120FEF7EBFD0223E360F8336361A361184B14E00120FEF7EEFD0120FEF7DEFD01236360E360144B636109E00120FEF710
:40574000E2FD0223E360F8336361A3610F4BE361E2682662531E2570012B09D823699A4206D904339B00E4186168022001F0D0FD70BDC046A81700206D560000655600001E
:405780005D560000515600001027000049560000144B70B51A69D96801321A611C008A4213D3002559681D61A9420ED09A680132914201D99A6008E09D601B6A002B10D077
:4057C00098472900FFF762FF0BE0E369002B00D098472369022004339B00E418616801F097FD70BDA817002010B50549041E00D10449054801F040FC200004F0EFFB10BDCB
:40580000CF190200361502005E1E0200014B18787047C046CC17002070B50500013803281BD81E4C05F090FB020209111C4801F06BFC25700024260015E01A4801F064FC4B
:4058400003230126237000240DE0174801F05CFC042300262370012405E030221349144801F00AFC19E0002004F0FCFB002004F005FC012D01D1002003E00120022D00D068
:40588000200004F0E3FB002E02D0012004F0EAFB002C02D0012004F0F1FB70BDCC170020BF190200C7190200D5190200E61902003414020070470000F7B5050005274318E7
:4058C0000193019B9D4249D0254C29782078260005283FD805F038FB03070F19292F0123022939D137E0022936D01E4802F0DCFF022360802FE06088217102F0D5FF03236C
:40590000237000236080637126E0637906366088F15402F0C9FF637922790133DBB2608063719A4218D8042315E0608802F0BCFF2770608010E0608802F0B6FF6080002891
:4059400008D121006279084B023A92B20831A079DB689847002323700135B2E7F7BDC046D017002001C70000D018002010B5002805D00022034BD860034B04481A7001F076
:40598000DDFB10BDD0180020D0170020B958000037B502226B466D460A4C1A705A702378EA70AB70DB43287169719218A91C0648237002F065FF40BA0821E880684601F093
:4059C000F1FB37BDE40E002001C70000F7B50500100008300F00160001F0ECFB041E29D00223154A03704370137805718370DB431370B31CC3700023062543719F4205D0E3
:405A000040193200390007F03FFC7519AA1EA11C0A4802F035FF40BA6B46991D08800222601907F031FC2000A91C01F0BBFB200001F0C4FBF7BDC046E40E002001C700004B
:405A400003880888181A704710B50F4C23686268934213D1B1220D4952000D4801F00CFB20000C220830002107F017FC0622094B1A606369002B02D0984700E06360052114
:405A8000062001F003FD10BDE0180020F219020034140200E80E00200D4B13B51C680D231C4211D004F0F4FB002809D004F0EAFB01900848012201A9183002F023FEF1E7CC
:405AC0000A21043001F024FC034B1C6013BDC046CC0F2540E0180020C00F2540144B10B51C003E342278002A1BD159611E21186419839A835A830F4904201A605A6001F0FC
:405B0000DBFB0D4804F0B8FB04F0A8FB0B49062001F0B2FC2821062001F0B8FC0123237005E086220649FF32064801F0A5FA10BDE0180020C55B0000995A0000495A000092
:405B4000F21902003414020010B50D4C23003E331B78002B0DD02821062001F097FC20000C220830002107F098FB0622054B1A6005E0C82204495200044801F07DFA10BD7C
:405B8000E0180020E80E0020F21902003414020010B504F085FB10BD10B504F085FB10BD064B10B544331A78054B9888002A03D1642105F0DDF980B210BDC046E01800205A
:405BC000E80E0020F7B5854CA38B002B00D103E1002521002000824E45313368183001931022356002F0F7FD019B07003360A84200D1F1E0ABB29F42EAD92600230055369D
:405C000030784533EB5C092800D9DBE005F09CF905101C36424B5A687F9EFF2B00D0D9E02300002256331A7023000132553384E02A2B00D083E02200563213782A331370F1
:405C400023000222553378E0032B08D12200012144321170210056310A78033209E0042B6DD12200002144321170210056310A7804320A70220055321370ABE0012B5ED1E0
:405C8000220056321378013313702300002258331A8004E0002B52D122005832138023000522553349E0FF2BBAD0210056310A789A180A7022001B02583213802300062271
:405CC00055333AE0210056310A789A180A70210058310A8813430B802300072255332CE0220044321278002A06D0032B27D1220056321378033305E0272B20D1220056322A
:405D000013782733137023000822553315E0220044321278002A06D0E82B10D1220056321378183B05E0102B09D1220056321378103313702300092255331A704AE0FF2BEA
:405D400000D16DE7230000225533F6E7210056310A785242D2B20A709342F3D121002368583101332360E36D09885A00A21801331181062B00D1002326002100603608311D
:405D80000C223000E36507F07FFA164B02220621300007F0B6FD144A1368002B0DD1210060318B88C988266CCB185B089380002EC8D0FFF7F5FEB047C4E7013B1360002B39
:405DC000EDD0BFE724220949FF32094801F054F90023337001350DE7F7BDC046E0180020C80F2540415A0000E80E0020F21902003414020010B5044C2378002B03D104F03F
:405E0000DFF90123237010BD4C190020364B70B51D780400002D06D134483422344901F02BF928005EE0002806D130483722304901F022F9200055E004F0D0F9022004F0F7
:405E4000D5F9002004F0E8F90500012004F0E4F9060004F0C9F9301C002E00DA002000B205F0E6FC06F09EFE224A234B06F054F806F0ECFE214905F03BFA06F093FE204A9C
:405E8000204B06F049F806F0E1FE06F08BFE00221D4B06F041F805F00DFA6080281C2B0400D5002000B205F0C3FC06F07BFE114A114B06F031F806F0C9FE104905F018FA27
:405EC00006F070FE114A124B06F026F806F0BEFE06F068FE00220C4B06F01EF805F0EAF92080012070BDC0464C19002034140200FF1902006666666666660A4000E0FF4459
:405F00009D36D069039DD63F00408F405555555555550540034B1A78002A01D101321A707047C0464E190020F0B53F4D85B02C780600002C03D1A8223C493D481EE0002867
:405F400006D13B48AB22394901F096F8300069E090239B015BBA022201A988200B8002F019FF0A27041E10D1304E314D68223100280001F081F8AE223100280001F07CF806
:405F800020004FE0013F002F47D0022002AC04F08DFB06222100882002F02EFF0028F1D0208840BA80B206F0BBFD0022214B05F0B3FF06F04BFE204905F09AF91F4905F083
:405FC000B1FA06F0EFFD1E4A1E4B05F079FC00221D4B05F0A1FF06F06DFD6B460B219C1D688002226944200007F04EF9208840BA80B206F095FD0022144B05F08DFF06F059
:4060000025FE0D4905F074F906F0CCFD0022104B05F056FC05F04EF9287101206B8833802B79B37005B0F0BD4E1900200E1A02003414020000E0654000FF7F470000344282
:406040009A9999999999A93F00002440000059400000E03F044B10B51870044B1B68002B00D0984710BDC046EE0E00205419002010B500F0B9F9002800D00920FFF7EAFF5A
:4060800010BD000010B50120FFF7C6FB00F0ACF9002803D00320FFF7DDFF07E00449022001F0EAF90221080001F0F0F910BDC046B560000010B50220FFF7AEFB00F094F9D7
:4060C000002803D00420FFF7C5FF07E00449022001F0D2F90221080001F0D8F910BDC046E560000010B50320FFF796FB00F07CF9002806D00120FFF78FFB0520FFF7AAFF79
:406100000BE00822054B0649986002205A6001F0B3F90121022001F0B9F910BD541900206561000010B50420FFF776FB00F05CF9002806D00220FFF76FFB0720FFF78AFF78
:406140000BE00822054B0649986002205A6001F093F90121022001F099F910BD541900200D620000F7B5244CA3686268260093420CD200F039F9002804D00120FFF74CFB44
:40618000052036E0A3680133A3602AE000F02CF9071EF2D101AD2800FFF738FE041E06D1A5221649164800F067FF6C8010E06B88144A934201D8A92205E096220124D2004C
:4061C000934205D9AC220D490D4800F055FF3C000120FFF721FB002C08D00B49022001F04BF90121022001F051F904E006206B88B381FFF72FFFF7BD541900201A1A0200C6
:4062000034140200BB02000025610000F7B5244CA3686268260093420CD200F0E5F8002804D00220FFF7F8FA072036E0A3680133A3602AE000F0D8F8071EF2D101AD28002D
:40624000FFF7E4FD041E06D15D221649164800F013FF6C8010E06B88144A934201D8612205E096220124D200934205D964220D490D4800F001FF3C000220FFF7CDFA002C03
:4062800008D00B49022001F0F7F80121022001F0FDF804E008206B88B381FFF7DBFEF7BD541900201A1A020034140200BB0200007160000013B501AC2000FFF7A7FD0028DE
:4062C0000FD023880C4A934202D80C4B012204E00B4A93420BD90222084B9A731B68984709E0952207495200074800F0C5FE0121022001F0CBF813BDB70B00005419002062
:40630000881300001A1A02003414020010B5022001F0DAF80220FFF77FFA0122014B1A7010BDC046EE0E002010B50C4B18600C4B1A78022A06D10B48F9320B4900F09CFE43
:4063400000200AE00224094920001C7001F094F82000012101F09AF8012010BD54190020EE0E0020341402001A1A020085600000014B18787047C046EE0E0020014B98898F
:406380007047C0465419002010B50400022001F0A9F8002807D09A2209485200094900F06BFE00200BE0084B0849987302201C6001F062F802201E2101F068F8012010BDCA
:4063C000341402001A1A020054190020B562000010B5022001F078F810BD10B504F00AF843425841C0B210BD10B504F00BF843425841C0B210BD000010B5044A0121136883
:4064000003200133136001F041F810BD6419002010B500F089F900F0CFF9054B05491860032001F029F80121032001F02FF810BD64190020F9630000014B18687047C04618
:406440006419002010B504000100044800F014FE034B20001C6000F0FBF910BD291A02006419002013B5084B084A1B6804009B1801A8019306F0E6FD03691C19046106F031
:40648000E1FF034BC01816BD6419002000E10B5E001FF4A113B5084B084A1B6804009B1801A8019306F0CEFD43691C19446106F0C9FF034BC01816BD6419002000E10B5E9F
:4064C000001FF4A17FB504000625FEF7E1FA2A00411D200006F0D8FE07F056FB2A0002902100104802F0CCF902A9042202F0C8F910220D4902F0C4F940BA6B46029E5D1991
:40650000F343288003A9A01D0422039306F0BCFE2000022229000A3006F0B6FE300004B070BDC04698C60000351A020073B5861D040004220D0001A8310006F0A5FE019B80
:406540000422DB4301A93000019306F09DFE21000622124802F094F9042201A902F090F910220F4902F08CF9210002220A3102F087F9041E06D00B4834220B4900F07CFD1A
:40658000002009E0019B0120AB4205D005483722054900F071FD200076BDC04698C60000351A020034140200451A020070B50A21050004F0DDFCC1B20C0128000A2104F065
:4065C0005DFD2143C8B270BD0A2302095A43053318401018C0B2704773B56B460D00D91D08701600DE20012202F0D4FB7F22041E09D032002900DE2002F0FEFB040001202F
:40660000002C05D184220348034900F035FD200076BDC04634140200551A0200F7B501AD012229000020FFF7D7FFCF22041E30D080222B78524213432B702A000123002107
:40664000DE2002F017FC642604002027D52200281FD0022004F02AF8012229000320FFF7BBFF002805D1DD220D490E4800F004FD0BE02B783B4208D0202328781840040021
:406680000120002C0AD1E62203E0013E002EE0D1F2E70448024900F0EFFC2000FEBDC046551A02003414020073B501AC012221000020FFF791FFA22200282BD07F232278E0
:4066C00000211340237022000123DE2002F0D2FB64252026A82200281CD0022003F0E6FF012221000320FFF777FF002805D1B0220B490C4800F0C0FC08E02378334205D124
:40670000237801209B060AD5B92203E0013D002DE3D1F5E70348024900F0AEFC002076BD551A020034140200F7B501AD012229000320FFF751FF041E03D1FD221B491C483A
:406740001CE008242B78234226D10422174F184EFF323900300000F08FFC10222B780321234393432B702A000123DE2002F082FB041E07D1842252003900300000F07CFC9D
:4067800020000FE0012229000320FFF725FF041E02D10E22FF32EFE72B7801209B0601D4FFF73CFF034B1870FEBDC046551A0200341402006819002030B58DB001AC0722BF
:4067C0000021200006F069FD072221000020FFF703FF051E2CD07F252422002103A806F05CFD20782840FFF7EFFE039060782840FFF7EAFE0490A078403D2840FFF7E4FE79
:40680000059020792840FFF7DFFE1F23069060791840FFF7D9FE01380790A079FFF7D4FE6430089003A806F00DFE064BC01806E09B2205485200054900F01EFC28000DB0E8
:4068400030BDC046001FF4A134140200551A02007FB5314BC018019001A806F0F3FB4E22051E4DD002AC07220021200006F015FD2878FFF79BFE20702879FFF797FE607085
:40688000287AFFF793FE0923A070287BE370FFF78DFE2B692071581CC0B2FFF787FE1F4B6D690600ED181E4B60719D4202DCAF22520026E06421280004F0CAFC002907D1A3
:4068C0009131FF31280004F0C3FC002905D101E0AB0702D120231E43667128003030C0B2FFF764FEA071FFF7DFFE002811D0072322000021DE2002F0BDFA002806D1762201
:40690000FF320849084800F0B7FB02E0FFF786FE00E0002004B070BD00E10B5E6C070000CF070000551A02003414020010B5041E02D1C32252000FE0FFF7F6FE0023984291
:406940000FD0403322002021DE2002F093FA0123041E06D19022FF320349044800F08CFB2300180010BDC046551A02003414020010B5041E02D1D02252000EE0FFF7D4FE59
:40698000002398420ED0210040222020FFF724FE0123041E06D1AA22FF320349034800F06BFB2300180010BD551A020034140200244B13B51B78002B04D1FFF7B5FEBC2206
:4069C000002836D001AC012221000720FFF704FEC82200282DD07F23227807211340237022000123DE2002F045FACE22002820D0012003F05BFE03F069FDEA2201280DD0AB
:406A000080222378524213432370220001230721DE2002F02FFA002802D1ED22520009E0012003F043FE03F051FD0123002806D1E222FF320449054800F01EFB0023180004
:406A400016BDC04668190020551A020034140200F0B54478037824021C433C4B85B0E318F9224F2B0BD8837800930C2B02DDF822FF3260E0C37801931F2B02DDFE225200B8
:406A800059E00579172D01D9314A54E046793B2E01D9304A4FE087793B2F01D92E4A4AE00021072202A806F0F8FB3800FFF77EFD02AB18703000FFF779FD02AB58702800CD
:406AC000FFF774FD02AB9870092302AA0198D370FFF76CFD02AB18710098FFF767FD64210500200004F0CAFA89B2002908D19131FF31200004F0C2FA89B2002902D003E0C5
:406B0000A30701D120231D432000303002ABC0B25D71FFF74BFD02AB9871FFF7C5FD002811D0072302AA0021DE2002F0A3F9002806D18E2292000949094800F09DFA02E044
:406B4000FFF76CFD00E0002005B0F0BD1CF8FFFF01020000060200000B020000551A02003414020073B5072200210400684606F094FB072269460020FFF72EFD051E2CD08E
:406B80006B467F2618783040FFF71EFD6B46A07158783040FFF718FD6B4660719878403E3040FFF711FD6B46207118793040FFF70BFD6B46E07058791F231840FFF704FD39
:406BC0006B46A0709879FFF7FFFCFA23DB00C01880B22070000A607005E0952203499200034800F049FA280076BDC046551A020034140200F0B5040085B002AD06220E008F
:406C00002800002106F049FB2300A21D1978092901D9002056E001339342F7D1002EF8D0300007F021F8C0B20A28F2D9711D0622684606F029FB00236A466946D25C303AEE
:406C4000CA540133062BF7D100261F4F6B46985DF35D0A21C01804F0FBFA6B4699550136062EF3D15F78DB780026FF186B465B79FF18FFB26B46985D0A21C01904F0E8FA51
:406C80006B4699550136032EF4D15879062104F0F5F9C9B2002900D1310000230139C9B25A1A00D506326846C05C0133A854062BF6D10023E95CE25C9142AAD10133062BE4
:406CC000F8D1012005B0F0BD661A0200F7B506000D000192FFF7B0FB534C0700022D4DD8072373439BB21A0AA3713C339BB223711B0AE2716371002D0ED13C2373432D3357
:406D0000FF339BB2A3701B0AE3700A232374563B6574A374E57422E00F233C2073432D33FF339BB2A3701B0AE3707043502104F0A9F9092804DD80B22074000A607403E0A8
:406D40000A2323740023637437494B7C0A7C1B021343BE22D31A9BB28B741B0ACB74E378A2781B0213435B009BB223701B0A637050235B4223725433637211E00A2200233C
:406D80000F21A271A2702272093AE37121716371E37021706370637222746374A274E3740323A37223733933A3733B0A63753B0CA3753B0EE375019B2775FF183B0A2776E6
:406DC00063763B0C3F0EE776E778A2783F02174339000020A376E379A2791B0213431731CF18637A217A1B020B43FB181A0A237762771A0C1B0EE0726073E073A277E37763
:406E0000012D0CD0854205D0022D08D0FF3D6842684108E00C23B3426D41E8B203E07823B3424041C0B2FEBD1031002010B5402000F0C0F92C22041E0CD0FFF799FD002872
:406E40000CD040222100084801F01AFD2300002808D035220549064800F00EF9200000F0ADF90023180010BD2D5800006C1A02003414020010B5010004003E22064801F0D0
:406E8000FFFC40BA230080B23E331870000A58702000FFF74BFD10BD2D58000070B5061E01D100240FE0FFF7C1FF051EF9D0012304781C4004D0011D2022300006F0E4F90A
:406EC000280000F07BF9200070BDF0B591B00500FFF7ACFF0126041E15D0002D08D004302022290006F0D0F923781E43267002E00378B34303702000FFF7BCFF070020004C
:406F000000F05CF915E03700002D12D001004022684606F0C2F96B461B7820221E436B46290001A81E7006F0AFF96846FFF7A2FF0700380011B0F0BD70B590B00500FFF727
:406F400075FF041E12D003780222002D04D013430370431DDD7701E0934303702000FFF789FF0600200000F029F914E00126002D11D001004022684606F08FF96B460222EF
:406F80001B78684613436A4613706B460533DD77FFF770FF0600300010B070BD10B5FFF745FF041E07D0037800249B0701D5431DDC7F00F003F9200010BD10B50D2002F0BB
:406FC0001BFF0A2002F018FF10BD0000134B13B501201C68FEF76EFCC8239B001C4202D002F0FAFE13E00D231C4210D002F0ECFE002808D002F0E2FE0122019001A90848F0
:4070000001F080FBF2E70A21013000F081F9054B00201C60FEF74EFC13BDC046CC0F24406C190020C00F2440F8B50C4DAB88002B12D00B4C343400230A4E21003768642267
:407040003360280001F0C7FB3760011E04D0064B20009B699847EEE7F8BDC0466C1900206C1A0020C80F2440EC1A0020014B18707047C046EF0E00200FB40C4B13B51B7865
:40708000002B0ED096210A4C05AB1C34049A49002000019307F06AF8200002F057FFFFF78CFF13BC08BC04B01847C046EF0E0020EC1A0020114B73B51B780E001500002B89
:4070C0001BD0002801D002F041FF2A000C49684606F0A8FD684602F039FF3400A31B9D4209DD22780749684606F09CFD684602F02DFF0134F2E7FFF760FF73BDEF0E002080
:40710000761A02007C1A0200044B10B51B78002B03D002F01BFFFFF750FF10BDEF0E002010B502F037FE0023024A1360024A136010BDC046C80F2440880F244070B5041E68
:407140000F4D12D096220F4B52001A8000220E499A805A80012000F0AFF80C482B6802F027FE0D232B602B6807E00100012000F0A3F82C60200002F01BFE054B9C6170BD9D
:40718000C80F24406C19002029700000CD6F0000EC1A002010B502F048FE10BD10B502F048FE10BD10B502F035FE10BD10B503F071FA10BD10B506F039F810BD10B5002813
:4071C00001D006F03DF810BD10B50749032003F019FA00F0AFF80022044B1A605A609A60DA601A615A6110BDAD710000341C0020022804DC024BC000C150181842607047D6
:40720000341C00200023022805DC044BC000C358581E8341DBB218007047C046341C002070B5094C2500183572B60022236860682260626062B6934200D098470834AC42E7
