:400000000080002011000000530900005309000010B500F08BFD00F0BDFC0000F8B572B680260024324DF6002C6032002100314801F071FB320021002F4801F06CFB2F4B0C
:4000400006211C6099232E4A1B0413602D4A022713602D4A2D4E13602D4A13780B43137020222C4B1A60C0222B4B92021A602B4A2B4B1A6010222B4B1F602B4B1A602B4B41
:40008000D2191A6001F0B0F9294801F055FA012001F0B6F9302001F0CFF88023254ADB0533601368FA201F431760234B234AC0001A600822224B1C602B6893432B6001F0C7
:4000C0004DF9204801F0AEF880221F4B12061A6080221E4BD2021A608023DB05336003231B4A13601B4A13601B4B1C60F8BDC0466CF02E4000300F4000400F400000024021
:4001000000500F4020500F4030500F400C020B4000700F400000044008000440000C070008020440000304400803044030001040001BB70078002E407C002E406A2D00003A
:4001400064F02E40DC05000008010B4000010B403000304030003140000E3F4010B5064C2378002B07D1054B002B02D0044800E000BF0123237010BD60010020000000007C
:40018000A0200000084B10B5002B03D00749084800E000BF07480368002B00D110BD064B002BFBD09847F9E70000000064010020A0200000D000002000000000F0B5D04BAC
:4001C000C5B01E6804000092002E00D0DDE001228021CC4D1A6049002A00300000F070FA6B7C2A7C1B021343C74AC84F13806B7B2A7B1B0213433B806B7A2A7A1B021343EF
:40020000C348019300F07EFA2978C24800F064FA3988C14800F060FABB4BC048198800F05BFA0199BE4800F057FA2979BD4800F053FA802180272A79BB4B49001A703000FD
:400240002A0000F03DFA6B7B2A7B1B02134310331B020295AE4D03937F01039B9F4212D0802104AA4900380000F02AFA80235B00013B9BB204AAD25CB618B6B2002BF7D156
:400280000137FF37E9E7280000F03CFAA74800F039FA7642A64800F035FAB6B2280000F031FA3100A34800F017FA019BB34202D00023029A1370029B1B78562B0FD10026B7
:4002C000009A1E3B6370313B13809B4B28001E8000F018FA994800F015FA99483AE000204C2B3AD100F040FC002802D100F06EFC13E03823009A6370313B138000228E4BD8
:4003000028001A8000F0FEF98E4800F0FBF98E4800F0F8F98A4800F0F5F9280000F0F2F98A4800F0EFF98A4800F0ECF9280000F0E9F9280000F0E6F9864E300000F0E2F9DF
:40034000854800F0DFF9300000F0DCF9280000F0D9F9280000F0D6F915E000F005FC002802D100F033FC0EE0280000F0CBF97B4800F0C8F97A4800F0C5F97A4800F0C2F907
:40038000002000F02BFF00256FE00025012E6CD15E4B694E1988328801935D4F914243D3594D714A2B88934202D970495B189BB239216170298863711B0A8A429241A37155
:4003C0008023802130885B01524200022271C018E21D490000F074F9019B32881B88013B934204D10123FF2223716271A3718523009A5B00138033883800013333802B88A3
:4004000001332B8000F07EF9594800F07BF931885848013900F060F9298804250139564800F05AF9FF3520E08021364E49003200280000F045F94C232A00337029002B00E6
:40044000202000F033F98022330052002900022000F02CF93B23009A6370343B3800138000F050F9454800F04DF901220026ABB222701A0A0433A570E2709BB2E218013A1C
:400480001278013BB6189BB2B6B2002BF6D17642B6B2320A63195A711E711723AF1DE7193B701B4800F02EF9204800F02BF9344800F028F92178334800F00EF9617832483D
:4004C00000F00AF92900314800F006F96378392B0AD121792E4800F0FFF8A1796379090219432C4800F0F8F831002B4800F0F4F839782A4800F0F0F8002045B0F0BDC04673
:400500007C01002070020020780300207C030020DF250000A4200000D3200000042100003A21000065210000800100208E2100009F210000BC2100007A030020DB2100000B
:400540000A2200004122000072220000A0220000BD220000F42200004423000094230000C6230000E5230000FF01000000FEFFFFF5230000042400001724000032240000C5
:4005800045240000582400006D2400008224000097240000AE240000C3240000D82400000023094A10B51360084A136000F07AF8074C200000F0A6F8064800F0A3F82000E0
:4005C00000F0A0F810BDC046740300207C010020DF250000ED24000010B5054C200000F091F8044800F08EF8200000F08BF810BDDF2500000225000010B5064C200000F034
:4006000081F8054800F07EF8200000F07BF8002010BDC046DF2500002B25000070B562B600F020FD164C200000F06CF8200000F069F8144D280000F065F8134800F062F8B8
:40064000124800F05FF8124A1249134800F044F8280000F057F8200000F054F8200000F051F8192000F0B0FD0C4B010018600C4800F032F801F096FC00F0C2FCFEE7C0464F
:40068000DF250000F42200004025000090250000E0250000E9250000F5250000C80000204526000010B500F0C7F810BD10B50800190000F0E3F801235840C0B2404210BD17
:4006C000130010B50A00190000F0CCF801235840C0B2404210BD00000FB413B5084C04AB04CBC8212000019301F008F9200000F0BAFC00F0C5FC13BC08BC04B01847C046BF
:400700008101002010B500F0AEFC00F0B9FC10BD37B56B46DD1C9F23040000202B7000F0B7FC2800012101AD00F0DAF82800032100F0F4F8012000F0ABFC2B78A01C237000
:400740006B460222591D00F0DDFF37BDF0B500BA85B0000A01900D201700002503220E0003AC01A968440395227000F0CBFF280000F08EFC2000042100F0B2F839003000D0
:4007800000F0CCF8012000F083FC05B0F0BD13B56B46DC1D06230020237000F079FC0121200000F09DF8012000F072FC13BD7FB500230E00FF21039303AD02332B70431CD0
:4007C000FF3382188B439A4200D91A00141A00BA000A01900D20032201A9684400F092FF002000F055FC0421280000F079F880235B009C4200D91C002100300000F070F85B
:40080000012000F045FC200004B070BD13B56B46DC1D05230020237000F03AFC2000012100F05EF80121200000F078F8012000F02FFC207816BD000037B5002401AD28003B
:400840000194FFF765FF2B7820001F2B07D168888538FF3843425841014BC0B218703EBD49020020044B10B51C78002C01D0FFF76DFF200010BDC04649020020F7B50600DF
:400880000020164B14001B78834226D00191002C20D0FFF77CFFFFF7B9FF0223184219D0220001993000FFF782FF05270500012000F0A2FCFFF7AAFF0123184202D0013FAE
:4008C000002FF4D1002D05D0019B641B5B1901937619DCE760426041C0B2FEBD49020020F7B5040043180193019BA34215D008258026277830003840431E9841C0B200F0F7
:40090000D3FB012000F0DCFB013D002000F0D8FB7608002DEED10134E6E7F7BDF7B5040043180193019BA34212D007260027012000F0C6FB00F0D0FB0500B54000202F4351
:4009400000F0BEFBFFB2013EF1D227700134E9E7F7BD10B500F0AAFE03680C2B00D1FEE7FEE70000030010B5FA240849084A0868A400C3189A1AA24201DC0B6005E000F004
:4009800095FE0C2303600120404210BDD400002088030020F8B500250F49104B01394A1C14D000221F685C689E68A018B24203D0B858A0500432F8E70200DE68141AA64295
:4009C00001D020C2FAE710330139E8E700F074FEFFF724FEFEE7C04601000000E026000001210F4A70B5136814008B43136000230C4D0D4E0D489A002900032B00D8B1583D
:400A000001338150302BF6D1FFF708FB084B1A68002A00D11A60012223681343236070BD00001040530900000000000000000020C0000020004700234118002A05D0013AEF
:400A4000881800781B18DBB2F7E718007047FF23020070B59A43C0B01300541C6A46FF34D51A1E78EE540133A342FAD1C3B2D45C8C4205D0000AD15480B2110000F034FB71
:400A800040B070BD013810B50B2830D80902494200F06CFD06080A0C0E10141216191B20164B13E0164B16E0164B0AE0164B12E0164B0BE0164B09E0164B02E0164B00E0BC
:400AC000164BC91814E0164B05E0164BC9180878C0B211E0144BC9180A7848788C780002230418430300C8781343000603E000210B7848780002184310BDC046C0FF030073
:400B0000C1FF0300C5FF0300C9FF0300D0FF0300D1FF0300D6FF0300D2FF0300D4FF0300D8FF0300DCFF0300E0FF03000C4B10B51A68102313400B4A00D113601368802BBC
:400B40000DD10024022021001460FFF79BFFA04205D021000220FFF795FFFFF76BFF10BD00030B40C0000020F8B5010006000320FFF788FF040031000420FFF783FF0134F3
:400B800024022718002431000320FFF77BFF250001300002B84209D203785A1ED2B2FD2A00D80125E418E4B20130F3E731000120FFF768FF6442E4B20623844203D16A4228
:400BC00055416D422B401800F8BD000070B50400094D02280BD0FFF7C7FF002807D1614261410648C9B2FFF732FF802300E000232B6000F0F5FA70BDC0000020D0FF030014
:400C0000F0B5BE4CA544FFF7CBFC62B6002601969621FF2302AA490008A8FFF7CFFA0028F6D102AB1988062977D91A7E0423012A40D102AA558BEA1D8A4270D896214900EF
:400C40008A426CD808AA52199279172A32D1EB189BB2002B08D09EAAA949D21852181278013B801880B2F3E708AB5B195A7940421B79120280B21A43082382421AD150E0F0
:400C8000019B012B49D19F4B2B40032B45D102AA02AB977F5B7F3F021F43032D06D01F2102ABEA1EC91853A800F02CFD0923012C00D88FE0002702A8012143763B0AC37613
:400CC000002302AA02320176391D1780877689B2002909D09EA88A4C40180019007801391B189BB289B2F3E79EA98748C9195B4208189BB2037085481B0A08180370844BB6
:400D00000737CB18172108A81970B9B29623FFF773FC7DE7019B012B50D00423CAE70323C8E702AB1C7F5B7E1800313814282ED9784A1768002F26D0019A012A25D105ACE7
:400D400002AA1371D580002109AD0C222000049500F0E1FCA560210003A8B8472623A788FF339F4202D9A368AB4207D0A268002A01D1002F04D12368DBB29CE70E2399E708
:400D80000E23170097E7052395E7052392E700F0F7FBC1FF3500CFFF55008A00CFFF9000A4005500C900DC00CFFFCFFFCFFFCFFFCFFFCFFFCFFFCFFFCFFF77FF002DACD14A
:400DC0002800FFF7D1FE4342434102AA1377019F2B0070E76402504BE41924029F4200D9C0E0621C53ABFF321B1B2178185D884200D0B9E001349442F7D16BE0019B012B1D
:400E00008BD1012D89D1012C87D8444B1B681B685A0CD2B2944202D1DB03DB0D03E00023A2425B415B0202AA13771B0A5377FF239377FE3BD377042700233CE7342B0FD1ED
:400E4000019B012B00D068E7032D00D065E7802280265200002153A800F05DFC760006E0019B012B00D058E7022D00D855E71F2153AB981902ABEA1EC91800F043FC0423EF
:400E8000AD19FF33ADB29D4270D102AB9D7F587F2D02214B05432E009D426DD9FF3BFF3B0193093306E7019B012B00D035E70026AEE6019B012B00D02FE72C33AF19FF333F
:400EC0009F4200DD2BE753AB98192A0009A900F019FCBEB200231F00EDE6002D00D01CE705AB19000E4A2E0011CA11C109AA03CB03C20123082701932B00DCE684FDFFFF78
:400F0000A7FDFFFFFFFEFFFFACFDFFFFADFDFFFFAEFDFFFF4C020020FF010000D800002050260000019B012B00D0F6E6032D00D0F3E602AA02AB977F5B7F3F021F432D4B8F
:400F40009F4237D9F63BFF3BB4E60020FFF70CFE002802D18022284B1A60FFF73DFB00F03FF9DAE60A23A5E60223A3E6012300260193023337009EE6204B1B681A68130AFA
:400F8000D2B29BB2002A01D001339BB26002301880B2984204D20123002601930933E9E753A900F0A1F80028F5D10123060001930300DFE780226102C91909025200002010
:400FC000FFF739FD0500012C0ED10A4B9F420BD100210520FFF756FD00212D1A0620FFF751FDEDB22D1AEDB202AB6D421D770127002360E6FF010000C0000020D800002063
:4010000070B50020FFF7B0FD431E98410624134D40422B6804401A68C021C03A0020FFF70AFD6B681B78181AC0B2834203D12B681B68002B02D1002000F0D0F8084B1968CE
:401040001A00402901D0002C03D000231360FFF7D7FD80221A6000F0C3F870BDD8000020C0000020704770B5012405000078002805D000F0F5F9285D0134E4B2F7E770BD3D
:4010800010B50D2000F0ECF90A2000F0E9F910BD0223044940000A689A43D2B2034013430B607047000304402023044940010A689A43D2B2034013430B6070470002044074
:4010C00008230449C0000A689A43D2B2034013430B60704700020440024B18684006C00F7047C046040204400023F0B5C7B0029303932C4B050098424FD800294DD080222C
:4011000006A8520000F0FEFA274B9D4201D8274B00E0274BFF220493264C2749274B04AE726026600B60C046236801911B0F0F2B04D021680023090F0A2901D02368134057
:401140000293029F002F2AD100F0FFF90397029B002B16D11A4A2D040492049A194915430495019D2660134A2960C0462168090F0F2903D01168090F0A2901D01368DBB269
:401180000293039B002B05D10393039B002B01D0039B029300F0DDF901E004230293029847B0F0BDFF030000FF010000B6D70000B6D70001080010400400104004000080AA
:4011C000B6D80000050000801923020002491A40086818400A60704700030B4001BE7047034A044913689BB20B4313607047C0460CED00E00400FA0570B5802504002D0293
:40120000064BAC4205D9586800F096F9044BE418F6E79868604300F08FF970BDE80000200080FFFF10B5034B1B7B584300F084F910BDC046E8000020F0B5050087B000F0FF
:4012400084F9EB1E049003932D2B5BD8304B1B789D4204D82F4B1C782F4BE4B21EE02F4B1B789D4204D82E4B1C782E4BE4B215E02D4B1B789D4204D82C4B1C782C4BE4B297
:401280000CE02C4B1B789D4204D82B4B1C782B4BE4B203E02A4B1C782A4BE4B21B78EA1EDBB20193284B294F9A5C059302922F2A04D92A2D02D919263E6008E03F233E6872
:4012C0001E40029BB34205D2204B029A1A60052000F032F91B4B1E4AED182B780520DBB213601C4B019A1C601B4B1A60FFF79AFF029BB34206D9059B039A05209B5C3B6079
:4013000000F01AF9049800F024F907B0F0BDC04640F3FF0F41F3FF0F42F3FF0F43F3FF0F44F3FF0F45F3FF0F46F3FF0F47F3FF0F48F3FF0F49F3FF0F4AF3FF0F4BF3FF0F49
:401340004CF3FF0F4DF3FF0F582600002CFF0B4028FF0B401CFF0B4020FF0B40012370B5040080200E4900020A681D001A430A600C490D4A11600D490A6802430A60002C40
:4013800001D100200AE00120FFF74CFF084B1B682B42F6D1013C002CF5D1102070BDC04660F02E400220000078002E4010002E400C002E4001200A4A136883431360022347
:4013C00011689943116007492E330A689A43203B1A430A6007220B68934303430B60704700F02E4000FF2E4010B5FFF7E3FF8021024A090613680B43136010BD00F02E4060
:401400000122104B70B51C681440002815D0904215D1022507261968A94319600A490A68B2432A430A600A682E35AA43103D2A430A601A681043186001E0FFF7BBFF2000BD
:4014400070BDC04600F02E4000FF2E400000000000000000000000000000000000000000FEB5494652465B460EB407462E4909688A462E4A12682E48022100F08BF803002B
:401480002A480068C0182A4900F084F806001F3EB346234A126801219140C9430C000125002600F052F8814651460B6823400B605846043000F040F83800F040284090408E
:4014C0000B68234003430B60584600F035F80136072EF1D900200130012090400B68234003430B605846063000F026F8484600F030F8C046C046C0460EBC894692469B46BF
:40150000FEBDC046C046C046C046C046C046C046C046C046C046C046C046C046C046C046E400002050020020E0000020F800002000C20100000000000230800803D001387F
:40154000FDD1C046C046C0467047EFF3108072B6704780F3108870470160704710B5FFF761FE10BD004870470202000002B4714649084900095C49008E4402BC7047C046BD
:4015800003B47146490840004900095E49008E4403BC7047002243088B4274D303098B425FD3030A8B4244D3030B8B4228D3030C8B420DD3FF22090212BA030C8B4202D333
:4015C0001212090265D0030B8B4219D300E0090AC30B8B4201D3CB03C01A5241830B8B4201D38B03C01A5241430B8B4201D34B03C01A5241030B8B4201D30B03C01A524125
:40160000C30A8B4201D3CB02C01A5241830A8B4201D38B02C01A5241430A8B4201D34B02C01A5241030A8B4201D30B02C01A5241CDD2C3098B4201D3CB01C01A5241830939
:401640008B4201D38B01C01A524143098B4201D34B01C01A524103098B4201D30B01C01A5241C3088B4201D3CB00C01A524183088B4201D38B00C01A524143088B4201D350
:401680004B00C01A5241411A00D20146524110467047FFE701B5002000F006F802BDC0460029F7D076E770477047C046014B18687047C0465C0100200E4B70B500251E0067
:4016C0000D4CE41AA410A54204D0AB00F35898470135F8E700F0F2FF084B00251E00084CE41AA410A54204D0AB00F35898470135F8E770BDC8260000C8260000C826000021
:40170000D0260000002310B59A4203D0CC5CC4540133F9E710BD03008218934202D019700133FAE77047000070B50500002944D00C1F2368002B00DAE418280000F0EAF84A
:401740001E4A13681100002B02D16360146031E0A3420DD92268A018834203D118685B688218226063600C6024E0A24203D813005A68002AF9D11E689819A0420BD12168F1
:40178000711858181960824214D110685268411819605A600EE0A04202D90C232B6009E021686018824203D1106852684118216062605C60280000F0AEF870BD6C02002066
:4017C000032370B5CD1C9D43083506000C2D01D20C2501E0002D01DBA94202D90C23336048E0300000F096F8234B1C681A002100002913D00B685B1B0DD40B2B02D90B608E
:40180000CC181EE08C4202D1636813601AE04B6863600C0016E00C004968E9E7174C2368002B03D1300000F02BF820602900300000F026F8431C18D00323C41C9C43A042C3
:401840000DD12560300000F066F8200007220B30231D9043C31A0ED05A42E2500BE0211A300000F00DF8431CEBD10C233000336000F051F8002070BD6C0200206802002071
:40188000002370B5064C050008002360FFF76AF8431C03D12368002B00D02B6070BDC0468003002030B514009BB005001A00002C04DA8B230360012040421CE0822368461C
:4018C0009B0083810023009104919C4200D0631E02930593012369465B42CB8128001E9B00F07CF8431C01DA8B232B60002C02D00023009A13701BB030BD000007B50093EB
:4019000013000A00010002480068FFF7CBFF0EBD5C01002070477047F0B58E6885B007000C00039201939E4243D890238A89DB001A423ED003250969236801985B1A029387
:4019400063695D43EB0F5D19029B6D1001331B18AB4200D91D00530510D529003800FFF72FFF061E14D0029A2169FFF7CBFEA289194B134080221343A38112E02A00380026
:4019800000F0DAFA061E0CD121693800FFF7CCFE0C23402201203B60A38940421343A38117E0029B2661F61826606561019EED1AA560019BB34200D21E0032000399206874
:4019C00000F0A5FA0020A3689B1BA36023689E19266005B0F0BDC0467FFBFFFFF0B59FB0029005938B890F0016001B0610D50B69002B0DD14021FFF7E3FE38603861002861
:401A000004D10C23029A01381360D8E040237B61002306AD6B6120336B761033AB7634002378002B03D1A31B049312D003E0252BF9D00134F4E7A31B320039000298FFF75F
:401A40006BFF431C00D1B4E06A69049B944663446B612378002B00D1ABE00122002352426A6002A95432521801342B60EB60AB601370AB65534E21780522300000F03CFAB8
:401A8000002807D00123801B83402A68013413432B60EFE72B68DA0604D55322202102A8121811701A0704D553222B2102A81218117022782A2A03D0099B00200A210EE022
:401AC000059A111D12680591002A01DB099204E05242EA60022213432B6001340BE02278303A092A04D84B4301349B180120F6E7002800D0099323782E2B1ED163782A2B53
:401B00000AD1059B02341A1D1B680592002B01DA01235B42079310E000230A201A0001346B6021783039092904D84243013452180123F6E7002B00D00792234E21780322F3
:401B4000300000F0D9F9002806D04023801B83402A68013413432B60217806221B48661C297600F0C9F9002812D0194B002B06D10722059B073393430833059314E005AB55
:401B800000933A00134B2900029800E000BF07E005AB00933A000F4B2900029800F08AF80390039B013304D06B69039A9B186B6135E7BB890B985B0601D5012040421FB0D0
:401BC000F0BDC046882600008E260000922600000000000019190000F7B5170001938A680B6900900C00934200DA130022003B6043321278002A01D001333B6023689B0619
:401C000002D53B6802333B60062523681D401ED0230043331B785A1E9341226892061CD53020E1184331087021005A1C45310978A2184332023311700FE0220001231932A6
:401C400001990098089EB047431C0ED00135E3683A689B1A9D42F0DBDAE72200019943320098089DA847431C02D10120404220E006232068E1683A6803400025042B03D1DC
:401C80008D1AEB43DB171D40A3682269934201DD9B1AED180027BD420AD0220001231A3201990098089EB047431CDED00137F2E70020FEBDF0B58BB006920A004332079312
:401CC000059004920A7E0C00109B6E2A00D1ABE011D8632A22D009D8002A00D1B5E0582A00D0C5E045310A70814A4FE0642A1DD0692A1BD0BCE0732A00D1AAE009D86F2AC5
:401D000029D0702A00D0B3E0202209680A43226037E0752A1FD0782A33D0A9E00E001A684236111D196013683370A4E021681A68080606D4490604D5111D19600023D55EEF
:401D400002E0111D19601568002D3BDA2D23049A6D42137036E021681A68080606D4490604D51568111D1960ADB202E0111D196015685F4B227E039308276F2A1DD00A277B
:401D80001BE022007821453211705A4A19680392081D226818600D68100602D4500600D5ADB2D30702D520231A4322601027002D03D1202322689A432260230000224333B7
:401DC0001A7002E00A274A4B03936368A360002B09DB0422216891432160002D05D1049E002B11D07BE0002D79D0049E28003900FFF756FC039B013E5B5C280033703900D5
:401E0000FFF7C8FB051EF1D1082F09D12368DB0706D563682269934202DC3023013E3370049B9B1B23612BE009681A68080607D4490605D5111D19601368A28A1A8004E0B8
:401E4000111D1960136862691A600023049E236116E01A68111D1960166800216268300000F04AF8002801D0801B6060636803E0260042363270012323610023049A13709A
:401E8000079B09AA00932100069B0598FFF7A4FE431C02D10120404227E02369320006990598079DA847431CF4D0236800259B070FD4099BE068984217DA180015E022009C
:401EC0000123193206990598079EB047431CE1D00135E368099A9B1A9D42F0DBE9E72600039B42361B7833708EE70BB0F0BDC04699260000AA260000C9B28218904204D099
:401F000003788B4202D00130F8E70020704710B5884202D98B18984201D3002305E09B1A013A08D3995C8154FAE7934203D0CC5CC4540133F9E710BDF8B506000C001500CA
:401F4000002904D11100FFF73BFC040018E0002A03D1FFF7E9FB2C0012E000F013F885420ED929003000FFF72BFC071E07D021002A00FFF7C7FB21003000FFF7D5FB3C00C2
:401F80002000F8BD0B1F1A68101F002A04DA891804390B68D018043870470000002800002400000038B5FFF7DDFA00F03DF803211948FFF7D1FA0120FFF7D0FA1648303825
:401FC000406A04218007800F084381B2009012480C38FFF7C1FA1148016802221143009189B2FFF7B9FAB8210D48FFF7B5FA0C48032109021438FFF7AFFA094C5321D83CD2
:402000002046FFF7A9FA07210648FFF7A5FA54212046FFF7A1FA38BD70F02E40001F2E40D8102E4098142E4010B5002400F006F8002800D00124204610BD0000174902469B
:402040000B680020002B08D10A605207520F012A04D0022A10D0086012207047112292018A80CA80032252020A810122D2024A8140228A8105220DE0092252028A80CA8015
:40208000012252030A810322D2024A81012252028A810422CA810A82704700005402002000000000090909204D657461646174613A204170706C69636174696F6E20496DAD
:4020C000616765205374617475733A2030782530325800090909204D657461646174613A20496D6167652053697A652028696E20666C61736820726F7773293A2030782552
:4021000030345800090909204D657461646174613A205374617274206F6620696D61676520696E20666C6173682028726F772023293A2030782530345800090909204D6506
:402140007461646174613A204170706C69636174696F6E20636865636B73756D3A2030782530345800090909204D657461646174613A20456E6372797074696F6E20456E18
:4021800061626C65643A2030782530325800437573746F6D496E746572666163653A000943495F43616C634578744D656D417070436865636B73756D28293A0009092043F5
:4021C000616C63756C6174656420636865636B73756D3A203078253034580009094170706C69636174696F6E2053746174757320696E2045787465726E616C204D656D6FA8
:4022000072793A2056414C494400090909436F707920626F6F746C6F616461626C65206170706C69636174696F6E2066726F6D2065787465726E616C206D656D6F72792E39
:402240000009094170706C69636174696F6E2053746174757320696E2045787465726E616C204D656D6F72793A204C4F414445442E0009094170706C69636174696F6E206A
:40228000696E2074686520696E7465726E616C20464C4153483A20494E56414C49442E0009094170706C69636174696F6E207374617475733A204C4F4144454400090909E4
:4022C0005363686564756C6520626F6F746C6F616461626C65206170706C69636174696F6E20616E64207265736574206465766963652E003D3D3D3D3D3D3D3D3D3D3D3DC5
:402300003D3D3D3D3D3D3D3D3D3D3D3D3D3D3D3D3D3D3D3D3D3D3D3D3D3D3D3D3D3D3D3D3D3D3D3D3D3D3D3D3D3D3D3D3D3D3D3D3D3D3D3D3D3D3D3D3D3D3D3D3D3D3D3D5D
:402340003D3D3D003D20202020424C455F45787465726E616C5F4D656D6F72795F426F6F746C6F61646572204170706C69636174696F6E20506572666F726D7320536F66E8
:402380007477617265205265736574202020202020203D0009094170706C69636174696F6E2053746174757320696E2045787465726E616C204D656D6F72793A20554E4B55
:4023C0004E4F574E2E0009094170706C69636174696F6E207374617475733A20494E56414C49442E0009090948616C74204465766963652E00090950726F6772616D2052F6
:402400006F773A0009090920726F774964783A2030782530345800090909206170704669727374526F774E756D3A203078253034580009094578697420426F6F746C6F6176
:402440006465723A000943495F57726974655061636B657428293A00090920534F503A2020202020202030782530325800090920434D443A202020202020203078253032F1
:40248000580009092053495A453A20202020202030782530345800090920466C6173682041727261793A2030782530325800090920466C61736820526F773A2030782530E5
:4024C000345800090920436865636B73756D3A202030782530345800090920454F503A202020202020203078253032580009437942746C6472436F6D6D5374617274282989
:402500003A0009437942746C6472436F6D6D53746F7028293A0009437942746C6472436F6D6D526573657428293A0009437942746C6472436F6D6D577269746528293A0031
:402540003D2020202020202020202020202020424C455F45787465726E616C5F4D656D6F72795F426F6F746C6F61646572204170706C69636174696F6E2053746172746580
:40258000642020202020202020202020202020003D202020202020202020202020202056657273696F6E3A20312E302020202020202020202020202020202020202020208B
:4025C000202020202020202020202020202020202020202020202020202020202020200031303A35303A3535004A756C2020322032303230003D2020202020202020202059
:4026000020202020436F6D70696C65204461746520616E642054696D65203A2025732025732020202020202020202020202020202020202020202020202020202020202007
:4026400020202020006361757361202530385800AA116D1A003C0101030405060708090A0B0C0E0F101112131415161718191B1C1D1E1F2021222325262728292A2B2E2F87
:402680003031323334354300232D302B2000686C4C00656667454647003031323334353637383941424344454600303132333435363738396162636465660000F8B5C04602
:4026C000F8BC08BC9E46704785010000E1090000F8B5C046F8BC08BC9E4670475D010000F0260000D0000020900000002802000000000000880300209C1F0000A01F00004E
:402700000000044005000000010000000000C05D80BB000030000000006CDC02000000000000000000000000000000000000000000000000000000000000000086260000D1
:40274000000000000000000000000000000000000000000000000000000000000000000000000000000000000000000000000000000000000000000000000000FC0000203D
:402780000000000000000000000000000000000000000000000000000000000000000000000000000000000000000000000000000000000000000000000000000000000019
:4027C00000000000000000000000000000000000000000000000000000000000000000000000000000000000000000000000000000000000000000000000000000000000D9
:402800000000000000000000000000000000000000000000000000000000000000000000000000000000000000000000000000000000000000000000000000000000000098
:402840000000000000000000000000000000000000000000000000000000000000000000000000000000000000000000000000000000000000000000000000000000000058
:020000040003F7
:40FFC0000000000000000000000000000000000000000000010000000000000000000000000000000000000000000000000000000000000000000000000000000000000000
:0200000490303A
:020000000D6D84
:0200000490402A
:4000000000000000000000000000000000000000000000000000000000000000000000000000000000000000000000000000000000000000000000000000000000000000C0
:400040000000000000000000000000000000000000000000000000000000000000000000000000000000000000000000000000000000000000000000000000000000000080
:0200000490501A
:0C00000000021A6D11AA00001A7A1F17E6
:0200000490600A
:0100000001FE
:00000001FF